{
  "address": "0x49ad849920cB44963fF348E32bFA3C6ee8eFb9CF",
  "abi": [
    {
      "inputs": [
        {
          "internalType": "address",
          "name": "_vestingToken",
          "type": "address"
        },
        {
          "internalType": "address",
          "name": "_primordialPePeToken",
          "type": "address"
        }
      ],
      "stateMutability": "nonpayable",
      "type": "constructor"
    },
    {
      "anonymous": false,
      "inputs": [
        {
          "indexed": true,
          "internalType": "address",
          "name": "previousOwner",
          "type": "address"
        },
        {
          "indexed": true,
          "internalType": "address",
          "name": "newOwner",
          "type": "address"
        }
      ],
      "name": "OwnershipTransferred",
      "type": "event"
    },
    {
      "inputs": [
        {
          "internalType": "uint256",
          "name": "_vestIndex",
          "type": "uint256"
        }
      ],
      "name": "claimRewards",
      "outputs": [],
      "stateMutability": "nonpayable",
      "type": "function"
    },
    {
      "inputs": [],
      "name": "cosmicImpacts",
      "outputs": [
        {
          "internalType": "contract ICosmicImpacts",
          "name": "",
          "type": "address"
        }
      ],
      "stateMutability": "view",
      "type": "function"
    },
    {
      "inputs": [
        {
          "internalType": "uint256",
          "name": "_vestIndex",
          "type": "uint256"
        }
      ],
      "name": "emergencyWithdraw",
      "outputs": [],
      "stateMutability": "nonpayable",
      "type": "function"
    },
    {
      "inputs": [
        {
          "internalType": "uint256",
          "name": "duration",
          "type": "uint256"
        }
      ],
      "name": "findTimeBracketIndex",
      "outputs": [
        {
          "internalType": "uint256",
          "name": "",
          "type": "uint256"
        }
      ],
      "stateMutability": "view",
      "type": "function"
    },
    {
      "inputs": [
        {
          "internalType": "address",
          "name": "user",
          "type": "address"
        }
      ],
      "name": "getAllVests",
      "outputs": [
        {
          "components": [
            {
              "internalType": "uint256",
              "name": "amount",
              "type": "uint256"
            },
            {
              "internalType": "uint256",
              "name": "startTime",
              "type": "uint256"
            },
            {
              "internalType": "uint256",
              "name": "endTime",
              "type": "uint256"
            },
            {
              "internalType": "uint256",
              "name": "apr",
              "type": "uint256"
            },
            {
              "internalType": "bool",
              "name": "withdrawn",
              "type": "bool"
            }
          ],
          "internalType": "struct Vesting.Vest[]",
          "name": "",
          "type": "tuple[]"
        }
      ],
      "stateMutability": "view",
      "type": "function"
    },
    {
      "inputs": [
        {
          "internalType": "address",
          "name": "user",
          "type": "address"
        },
        {
          "internalType": "uint256",
          "name": "index",
          "type": "uint256"
        }
      ],
      "name": "getVest",
      "outputs": [
        {
          "components": [
            {
              "internalType": "uint256",
              "name": "amount",
              "type": "uint256"
            },
            {
              "internalType": "uint256",
              "name": "startTime",
              "type": "uint256"
            },
            {
              "internalType": "uint256",
              "name": "endTime",
              "type": "uint256"
            },
            {
              "internalType": "uint256",
              "name": "apr",
              "type": "uint256"
            },
            {
              "internalType": "bool",
              "name": "withdrawn",
              "type": "bool"
            }
          ],
          "internalType": "struct Vesting.Vest",
          "name": "",
          "type": "tuple"
        }
      ],
      "stateMutability": "view",
      "type": "function"
    },
    {
      "inputs": [
        {
          "internalType": "address",
          "name": "user",
          "type": "address"
        }
      ],
      "name": "getVestCount",
      "outputs": [
        {
          "internalType": "uint256",
          "name": "",
          "type": "uint256"
        }
      ],
      "stateMutability": "view",
      "type": "function"
    },
    {
      "inputs": [],
      "name": "mintablePrimordialPePeToken",
      "outputs": [
        {
          "internalType": "contract IPrimordialPePe",
          "name": "",
          "type": "address"
        }
      ],
      "stateMutability": "view",
      "type": "function"
    },
    {
      "inputs": [
        {
          "internalType": "address",
          "name": "",
          "type": "address"
        }
      ],
      "name": "nftImpact",
      "outputs": [
        {
          "internalType": "uint256",
          "name": "nftId",
          "type": "uint256"
        },
        {
          "internalType": "uint256",
          "name": "startTime",
          "type": "uint256"
        },
        {
          "internalType": "bool",
          "name": "staked",
          "type": "bool"
        }
      ],
      "stateMutability": "view",
      "type": "function"
    },
    {
      "inputs": [
        {
          "internalType": "address",
          "name": "",
          "type": "address"
        }
      ],
      "name": "nftPlanet",
      "outputs": [
        {
          "internalType": "uint256",
          "name": "nftId",
          "type": "uint256"
        },
        {
          "internalType": "uint256",
          "name": "startTime",
          "type": "uint256"
        },
        {
          "internalType": "bool",
          "name": "staked",
          "type": "bool"
        }
      ],
      "stateMutability": "view",
      "type": "function"
    },
    {
      "inputs": [],
      "name": "owner",
      "outputs": [
        {
          "internalType": "address",
          "name": "",
          "type": "address"
        }
      ],
      "stateMutability": "view",
      "type": "function"
    },
    {
      "inputs": [],
      "name": "primordialPlanets",
      "outputs": [
        {
          "internalType": "contract IPrimordialPlanets",
          "name": "",
          "type": "address"
        }
      ],
      "stateMutability": "view",
      "type": "function"
    },
    {
      "inputs": [],
      "name": "renounceOwnership",
      "outputs": [],
      "stateMutability": "nonpayable",
      "type": "function"
    },
    {
      "inputs": [],
      "name": "rewardBoosterContract",
      "outputs": [
        {
          "internalType": "address",
          "name": "",
          "type": "address"
        }
      ],
      "stateMutability": "view",
      "type": "function"
    },
    {
      "inputs": [
        {
          "internalType": "address",
          "name": "_cosmicImpactsContract",
          "type": "address"
        }
      ],
      "name": "setCosmicImpacts",
      "outputs": [],
      "stateMutability": "nonpayable",
      "type": "function"
    },
    {
      "inputs": [
        {
          "internalType": "address",
          "name": "_primordialPePeToken",
          "type": "address"
        }
      ],
      "name": "setPrimordialPePeToken",
      "outputs": [],
      "stateMutability": "nonpayable",
      "type": "function"
    },
    {
      "inputs": [
        {
          "internalType": "address",
          "name": "_primordialPlanetsContract",
          "type": "address"
        }
      ],
      "name": "setPrimordialPlanets",
      "outputs": [],
      "stateMutability": "nonpayable",
      "type": "function"
    },
    {
      "inputs": [
        {
          "internalType": "address",
          "name": "_vestingToken",
          "type": "address"
        }
      ],
      "name": "setVestingToken",
      "outputs": [],
      "stateMutability": "nonpayable",
      "type": "function"
    },
    {
      "inputs": [
        {
          "internalType": "uint256",
          "name": "_nftId",
          "type": "uint256"
        }
      ],
      "name": "stakeImpact",
      "outputs": [],
      "stateMutability": "nonpayable",
      "type": "function"
    },
    {
      "inputs": [
        {
          "internalType": "uint256",
          "name": "_nftId",
          "type": "uint256"
        }
      ],
      "name": "stakePlanet",
      "outputs": [],
      "stateMutability": "nonpayable",
      "type": "function"
    },
    {
      "inputs": [
        {
          "internalType": "uint256",
          "name": "",
          "type": "uint256"
        }
      ],
      "name": "timeBrackets",
      "outputs": [
        {
          "internalType": "uint256",
          "name": "",
          "type": "uint256"
        }
      ],
      "stateMutability": "view",
      "type": "function"
    },
    {
      "inputs": [
        {
          "internalType": "address",
          "name": "_rewardBoosterContract",
          "type": "address"
        }
      ],
      "name": "toggleRewardBooster",
      "outputs": [],
      "stateMutability": "nonpayable",
      "type": "function"
    },
    {
      "inputs": [
        {
          "internalType": "address",
          "name": "newOwner",
          "type": "address"
        }
      ],
      "name": "transferOwnership",
      "outputs": [],
      "stateMutability": "nonpayable",
      "type": "function"
    },
    {
      "inputs": [],
      "name": "unstakeImpact",
      "outputs": [],
      "stateMutability": "nonpayable",
      "type": "function"
    },
    {
      "inputs": [],
      "name": "unstakePlanet",
      "outputs": [],
      "stateMutability": "nonpayable",
      "type": "function"
    },
    {
      "inputs": [
        {
          "internalType": "uint256",
          "name": "_amount",
          "type": "uint256"
        },
        {
          "internalType": "uint256",
          "name": "_timeIndex",
          "type": "uint256"
        }
      ],
      "name": "vestTokens",
      "outputs": [],
      "stateMutability": "nonpayable",
      "type": "function"
    },
    {
      "inputs": [],
      "name": "vestingToken",
      "outputs": [
        {
          "internalType": "contract IERC20",
          "name": "",
          "type": "address"
        }
      ],
      "stateMutability": "view",
      "type": "function"
    },
    {
      "inputs": [
        {
          "internalType": "address",
          "name": "",
          "type": "address"
        },
        {
          "internalType": "uint256",
          "name": "",
          "type": "uint256"
        }
      ],
      "name": "vests",
      "outputs": [
        {
          "internalType": "uint256",
          "name": "amount",
          "type": "uint256"
        },
        {
          "internalType": "uint256",
          "name": "startTime",
          "type": "uint256"
        },
        {
          "internalType": "uint256",
          "name": "endTime",
          "type": "uint256"
        },
        {
          "internalType": "uint256",
          "name": "apr",
          "type": "uint256"
        },
        {
          "internalType": "bool",
          "name": "withdrawn",
          "type": "bool"
        }
      ],
      "stateMutability": "view",
      "type": "function"
    }
  ],
  "transactionHash": "0xab2c80537c9cc5b4d8a6c19344ecf80966c1b0b8819c6eb43dd5b7f157750acc",
  "args": [
    "0x27dF660eE7D634401A37de335946472B8928A10E",
    "0x2cD6B2b4f4D9fA59f8E9638c00F5902fD1d9afbc"
  ],
  "numDeployments": 1,
  "solcInputHash": "123c7bf20785ef77ca34a6c4f1dfc01d",
  "bytecode": "0x6080346200021d5762001bed906001600160401b03601f38849003908101601f1916830190828211848310176200022257808491604096879485528339810103126200021d57620000508262000238565b6200005f602080940162000238565b60008054336001600160a01b031980831682178455966001600160a01b039694959493909290919087167f8be0079c531659141344cd1fd0a4f28419497f9722a3daafe3b4186f6b6457e08380a38751926101808401908111848210176200020957885262278d008352624f1a0060208401526276a70088840152629e3400606084015262c5c100608084015262ed4e0060a0840152630114db0060c084015263013c680060e0840152630163f50061010084015263018b82006101208401526301b30f006101408401526301e1338061016084015260065492600c93600c60065580600c10620001a6575b5090869493926006825260208220915b8481106200018a57505050505016836001541617600155169060035416176003555161199f90816200024e8239f35b835163ffffffff1681840155889650928101926001016200015b565b600683527ff652222313e28459528d920b65115c16c04f3efc82aaedc97be59f3f377c0d3f017ff652222313e28459528d920b65115c16c04f3efc82aaedc97be59f3f377c0d4b5b818110620001fd57506200014b565b838155600101620001ee565b634e487b7160e01b82526041600452602482fd5b600080fd5b634e487b7160e01b600052604160045260246000fd5b51906001600160a01b03821682036200021d5756fe6040608081526004908136101561001557600080fd5b6000803560e01c8063013411cb146112a15780630710a4471461124857806307a5a020146111ef5780630962ef7914610e2f57806319d152fa14610e075780631dbc04ae14610dbb5780634368de5414610d9357806348d8a76e14610d6b5780634cdd38e914610d1f57806351706aa114610ce65780635312ea8e14610c6c5780635a4665c314610c20578063659446fc14610b0457806365967d0c14610a0c578063715018a6146109a55780637596c7231461089357806379d4de18146106af57806384a86e6d1461062f5780638da5cb5b14610609578063a2f4a3ff146105e1578063af8033c314610541578063c39e29581461041d578063c4d36cb8146103f7578063de4de3ba146102f1578063e842698b146102b6578063f2fde38b146101c8578063fbac5a521461017c5763fdafcec31461015457600080fd5b346101795760206003193601126101795750610172602092356115ee565b9051908152f35b80fd5b5034610179576020600319360112610179576001600160a01b0361019e6112ec565b6101a661168b565b1673ffffffffffffffffffffffffffffffffffffffff19600554161760055580f35b5091346102b25760206003193601126102b2576101e36112ec565b906101ec61168b565b6001600160a01b038092169283156102495750506000548273ffffffffffffffffffffffffffffffffffffffff19821617600055167f8be0079c531659141344cd1fd0a4f28419497f9722a3daafe3b4186f6b6457e0600080a380f35b906020608492519162461bcd60e51b8352820152602660248201527f4f776e61626c653a206e6577206f776e657220697320746865207a65726f206160448201527f64647265737300000000000000000000000000000000000000000000000000006064820152fd5b8280fd5b5090346102ed5760206003193601126102ed57806020926001600160a01b036102dd6112ec565b1681526007845220549051908152f35b5080fd5b5091346102b25760206003193601126102b25782813591338252600860205261032360ff600286852001541615611502565b338252600960205261033e60ff600286852001541615611573565b6001600160a01b0360055416803b156102b25784517f23b872dd0000000000000000000000000000000000000000000000000000000081523392810192835230602084015260408301859052918391839182908490829060600103925af180156103ed576103d9575b5050816103d69251916103b983611466565b8252426020830152600181830152338452600960205283206115be565b80f35b6103e29061143c565b6102b25782386103a7565b84513d84823e3d90fd5b5034610179578060031936011261017957506001600160a01b0360209254169051908152f35b5091346102b257826003193601126102b257338352600960205260ff6002838520015416156104ff5782906001600160a01b036005541690338352600960205283832054823b156104fb5784517f23b872dd00000000000000000000000000000000000000000000000000000000815230928101928352336020840152604083019190915291839183919082908490829060600103925af180156104ee576104da575b50600282338352600960205282200160ff19815416905580f35b6104e39061143c565b6102ed5781386104c0565b50505051903d90823e3d90fd5b8380fd5b6020606492519162461bcd60e51b8352820152601060248201527f4e6f20496d70616374207374616b6564000000000000000000000000000000006044820152fd5b5090346102ed57806003193601126102ed576105df6105ac6105a660a0946001600160a01b0361056f6112ec565b826080885161057d81611482565b828152826020820152828a82015282606082015201521681526007602052846024359120611354565b506114c1565b91518092608080918051845260208101516020850152604081015160408501526060810151606085015201511515910152565bf35b5090346102ed57816003193601126102ed576020906001600160a01b03600354169051908152f35b5090346102ed57816003193601126102ed576001600160a01b0360209254169051908152f35b509190346102b257806003193601126102b25761064a6112ec565b6001600160a01b03168352600760205280832080546024359490851015610179575060a09361067891611354565b5080549260018201549260ff6002840154926003850154940154169381519586526020860152840152606083015215156080820152f35b5082346102ed57826003193601126102ed5780359060249384356006548110156108515761074f6001600160a01b03600154168351907f23b872dd00000000000000000000000000000000000000000000000000000000602083015261074a8261073c89308d339085016040919493929460608201956001600160a01b0380921683521660208201520152565b03601f19810184528361149e565b611735565b80600201908160021161083f5761076590611307565b90549060031b1c420180421161082b5733865260076020528286209280519561078d87611482565b8652602086019042825286019182526060860192835260808601938785528054906801000000000000000082101561081957906107cf91600182018155611354565b969096610808576103d697985051865551600186015551600285015551600384015551151591019060ff60ff1983541691151516179055565b88888088634e487b7160e01b825252fd5b8989604189634e487b7160e01b835252fd5b86601185634e487b7160e01b600052526000fd5b8686601186634e487b7160e01b835252fd5b606483601488602086519362461bcd60e51b85528401528201527f496e76616c69642074696d6520627261636b65740000000000000000000000006044820152fd5b5091346102b257826003193601126102b257338352600860205260ff60028385200154161561096357806001600160a01b038492541690338352600860205283832054823b156104fb5784517f23b872dd00000000000000000000000000000000000000000000000000000000815230928101928352336020840152604083019190915291839183919082908490829060600103925af180156104ee5761094f575b50600282338352600860205282200160ff19815416905580f35b6109589061143c565b6102ed578138610935565b6020606492519162461bcd60e51b8352820152601060248201527f4e6f20506c616e6574207374616b6564000000000000000000000000000000006044820152fd5b50346101795780600319360112610179576109be61168b565b60006001600160a01b03815473ffffffffffffffffffffffffffffffffffffffff1981168355167f8be0079c531659141344cd1fd0a4f28419497f9722a3daafe3b4186f6b6457e08280a380f35b5091346102b25760206003193601126102b257828135913382526008602052610a3e60ff600286852001541615611502565b3382526009602052610a5960ff600286852001541615611573565b6001600160a01b03815416803b156102b25784517f23b872dd0000000000000000000000000000000000000000000000000000000081523392810192835230602084015260408301859052918391839182908490829060600103925af180156103ed57610af0575b5050816103d6925191610ad383611466565b8252426020830152600181830152338452600860205283206115be565b610af99061143c565b6102b2578238610ac1565b5091346102b2576020806003193601126104fb576001600160a01b03610b286112ec565b168452600781528284209384549267ffffffffffffffff8411610c0d5750939190600591845192610b5e838360051b018561149e565b8184528284018095885283882088915b848310610be75750505050508351938185019282865251809352840192945b828110610b9a5784840385f35b9091928260a082610bd86001948a51608080918051845260208101516020850152604081015160408501526060810151606085015201511515910152565b01960191019492919094610b8d565b8386600192610bfa859d999a9b9d6114c1565b8152019201920191909896959498610b6e565b906041602492634e487b7160e01b835252fd5b5034610179576020600319360112610179576001600160a01b03610c426112ec565b610c4a61168b565b1673ffffffffffffffffffffffffffffffffffffffff19600354161760035580f35b509190346102b25760206003193601126102b257610caf610cd8918335903386526007602052610ca0818720548310611370565b33865260076020528520611354565b5091820191610cc260ff845416156113bb565b6001600160a01b036001541690549033906116e3565b600160ff1982541617905580f35b5091346102b25760206003193601126102b25735916006548310156101795750610d11602092611307565b91905490519160031b1c8152f35b5034610179576020600319360112610179576001600160a01b03610d416112ec565b610d4961168b565b1673ffffffffffffffffffffffffffffffffffffffff19600254161760025580f35b5090346102ed57816003193601126102ed576020906001600160a01b03600554169051908152f35b5090346102ed57816003193601126102ed576020906001600160a01b03600254169051908152f35b5034610179576020600319360112610179576001600160a01b03610ddd6112ec565b610de561168b565b1673ffffffffffffffffffffffffffffffffffffffff19600154161760015580f35b5090346102ed57816003193601126102ed576020906001600160a01b03600154169051908152f35b5091346102b2576020806003193601126104fb57610e6c823533865260078352610e5d858720548210611370565b33865260078352848620611354565b509180830193610e8060ff865416156113bb565b60028401548042106111ae57600185015490610ea4610e9f8383611406565b6115ee565b600654111561116c57600386015491670de0b6b3a7640000918284029380850484149015171561115957618e9462015180610ee7610ef7969594610ef194611406565b0493048854611429565b04611429565b866001600160a01b0394856002541680610fce575b50506064019081606411610fbb57610f278892606492611429565b048460035416803b156102b25783517f40c10f19000000000000000000000000000000000000000000000000000000008152339581019586526020860192909252909384919082908490829060400103925af1908115610fb25750610f9b575b5090610cd8916001541690549033906116e3565b93610faa610cd893929561143c565b939091610f87565b513d87823e3d90fd5b602488601186634e487b7160e01b835252fd5b9091338a526008835260ff6002868c2001541660001461109757503389526008825283892054855485517fe345d9610000000000000000000000000000000000000000000000000000000081528088019283529088166001600160a01b031660208301529183918391908290819060400103915afa91821561108d57899261105b575b50505b3880610f0c565b90809250813d8311611086575b611072818361149e565b8101031261108257513880611051565b8780fd5b503d611068565b84513d8b823e3d90fd5b909160098152848a209260ff6002850154166110b7575b50509050611054565b61110f92508193549088600554169187518095819482937fe345d9610000000000000000000000000000000000000000000000000000000084528c84019092916001600160a01b036020916040840195845216910152565b03915afa91821561108d57899261112b575b50508038806110ae565b90809250813d8311611152575b611142818361149e565b8101031261108257513880611121565b503d611138565b60248a601188634e487b7160e01b835252fd5b6064848685519162461bcd60e51b8352820152601660248201527f54696d6520627261636b6574206e6f7420666f756e64000000000000000000006044820152fd5b509180606493519262461bcd60e51b845283015260248201527f56657374696e6720706572696f64206e6f742079657420636f6d706c657465646044820152fd5b5090346102ed5760206003193601126102ed5780916001600160a01b036112146112ec565b168152600960209081529190208054600182015460029092015493519081529182015260ff90911615156040820152606090f35b5090346102ed5760206003193601126102ed5780916001600160a01b0361126d6112ec565b168152600860209081529190208054600182015460029092015493519081529182015260ff90911615156040820152606090f35b5082346102ed5760206003193601126102ed576001600160a01b036112c46112ec565b6112cc61168b565b1673ffffffffffffffffffffffffffffffffffffffff1982541617905580f35b600435906001600160a01b038216820361130257565b600080fd5b60065481101561133e5760066000527ff652222313e28459528d920b65115c16c04f3efc82aaedc97be59f3f377c0d3f0190600090565b634e487b7160e01b600052603260045260246000fd5b805482101561133e576000526005602060002091020190600090565b1561137757565b606460405162461bcd60e51b815260206004820152601260248201527f496e76616c6964207665737420696e64657800000000000000000000000000006044820152fd5b156113c257565b606460405162461bcd60e51b815260206004820152601160248201527f416c72656164792077697468647261776e0000000000000000000000000000006044820152fd5b9190820391821161141357565b634e487b7160e01b600052601160045260246000fd5b8181029291811591840414171561141357565b67ffffffffffffffff811161145057604052565b634e487b7160e01b600052604160045260246000fd5b6060810190811067ffffffffffffffff82111761145057604052565b60a0810190811067ffffffffffffffff82111761145057604052565b90601f601f19910116810190811067ffffffffffffffff82111761145057604052565b906040516114ce81611482565b608060ff60048395805485526001810154602086015260028101546040860152600381015460608601520154161515910152565b1561150957565b608460405162461bcd60e51b815260206004820152602160248201527f416c7265616479207374616b65642061205072696d6f726469616c506c616e6560448201527f74000000000000000000000000000000000000000000000000000000000000006064820152fd5b1561157a57565b606460405162461bcd60e51b815260206004820152601d60248201527f416c7265616479207374616b6564206120436f736d6963496d706163740000006044820152fd5b600260406115ec9380518455602081015160018501550151151591019060ff60ff1983541691151516179055565b565b6006549060005b82811061166657608460405162461bcd60e51b815260206004820152602660248201527f4475726174696f6e20646f6573206e6f742066697420616e792074696d65206260448201527f7261636b657400000000000000000000000000000000000000000000000000006064820152fd5b61166f81611307565b90549060031b1c821115611685576001016115f5565b91505090565b6001600160a01b0360005416330361169f57565b606460405162461bcd60e51b815260206004820152602060248201527f4f776e61626c653a2063616c6c6572206973206e6f7420746865206f776e65726044820152fd5b6040517fa9059cbb0000000000000000000000000000000000000000000000000000000060208201526001600160a01b03909216602483015260448201929092526115ec9161074a826064810161073c565b6001600160a01b0316906040516040810167ffffffffffffffff9082811082821117611450576040526020938483527f5361666545524332303a206c6f772d6c6576656c2063616c6c206661696c6564858401526000808587829751910182855af1903d1561188e573d92831161187a57906117d1939291604051926117c488601f19601f840116018561149e565b83523d868885013e611899565b805191821591848315611856575b5050509050156117ec5750565b6084906040519062461bcd60e51b82526004820152602a60248201527f5361666545524332303a204552433230206f7065726174696f6e20646964206e60448201527f6f742073756363656564000000000000000000000000000000000000000000006064820152fd5b9193818094500103126102ed578201519081151582036101795750803880846117df565b602485634e487b7160e01b81526041600452fd5b906117d19392506060915b919290156118fa57508151156118ad575090565b3b156118b65790565b606460405162461bcd60e51b815260206004820152601d60248201527f416464726573733a2063616c6c20746f206e6f6e2d636f6e74726163740000006044820152fd5b82519091501561190d5750805190602001fd5b6040519062461bcd60e51b825281602080600483015282519283602484015260005b84811061195257505050601f19601f836000604480968601015201168101030190fd5b81810183015186820160440152859350820161192f56fea26469706673582212208e5ee680ed873b90a79e8b6c5f730692d066742735ea7ed6cbb03c3084ea276764736f6c63430008170033",
  "devdoc": {
    "kind": "dev",
    "methods": {
      "owner()": {
        "details": "Returns the address of the current owner."
      },
      "renounceOwnership()": {
        "details": "Leaves the contract without owner. It will not be possible to call `onlyOwner` functions. Can only be called by the current owner. NOTE: Renouncing ownership will leave the contract without an owner, thereby disabling any functionality that is only available to the owner."
      },
      "transferOwnership(address)": {
        "details": "Transfers ownership of the contract to a new account (`newOwner`). Can only be called by the current owner."
      }
    },
    "version": 1
  },
  "userdoc": {
    "kind": "user",
    "methods": {},
    "version": 1
  },
  "storageLayout": {
    "storage": [
      {
        "astId": 396,
        "contract": "contracts/Vesting.sol:Vesting",
        "label": "_owner",
        "offset": 0,
        "slot": "0",
        "type": "t_address"
      },
      {
        "astId": 13008,
        "contract": "contracts/Vesting.sol:Vesting",
        "label": "vestingToken",
        "offset": 0,
        "slot": "1",
        "type": "t_contract(IERC20)1231"
      },
      {
        "astId": 13010,
        "contract": "contracts/Vesting.sol:Vesting",
        "label": "rewardBoosterContract",
        "offset": 0,
        "slot": "2",
        "type": "t_address"
      },
      {
        "astId": 13013,
        "contract": "contracts/Vesting.sol:Vesting",
        "label": "mintablePrimordialPePeToken",
        "offset": 0,
        "slot": "3",
        "type": "t_contract(IPrimordialPePe)12930"
      },
      {
        "astId": 13016,
        "contract": "contracts/Vesting.sol:Vesting",
        "label": "primordialPlanets",
        "offset": 0,
        "slot": "4",
        "type": "t_contract(IPrimordialPlanets)12957"
      },
      {
        "astId": 13019,
        "contract": "contracts/Vesting.sol:Vesting",
        "label": "cosmicImpacts",
        "offset": 0,
        "slot": "5",
        "type": "t_contract(ICosmicImpacts)12974"
      },
      {
        "astId": 13035,
        "contract": "contracts/Vesting.sol:Vesting",
        "label": "timeBrackets",
        "offset": 0,
        "slot": "6",
        "type": "t_array(t_uint256)dyn_storage"
      },
      {
        "astId": 13041,
        "contract": "contracts/Vesting.sol:Vesting",
        "label": "vests",
        "offset": 0,
        "slot": "7",
        "type": "t_mapping(t_address,t_array(t_struct(Vest)12991_storage)dyn_storage)"
      },
      {
        "astId": 13046,
        "contract": "contracts/Vesting.sol:Vesting",
        "label": "nftPlanet",
        "offset": 0,
        "slot": "8",
        "type": "t_mapping(t_address,t_struct(StakePlanet)12998_storage)"
      },
      {
        "astId": 13051,
        "contract": "contracts/Vesting.sol:Vesting",
        "label": "nftImpact",
        "offset": 0,
        "slot": "9",
        "type": "t_mapping(t_address,t_struct(StakeImpact)13005_storage)"
      }
    ],
    "types": {
      "t_address": {
        "encoding": "inplace",
        "label": "address",
        "numberOfBytes": "20"
      },
      "t_array(t_struct(Vest)12991_storage)dyn_storage": {
        "base": "t_struct(Vest)12991_storage",
        "encoding": "dynamic_array",
        "label": "struct Vesting.Vest[]",
        "numberOfBytes": "32"
      },
      "t_array(t_uint256)dyn_storage": {
        "base": "t_uint256",
        "encoding": "dynamic_array",
        "label": "uint256[]",
        "numberOfBytes": "32"
      },
      "t_bool": {
        "encoding": "inplace",
        "label": "bool",
        "numberOfBytes": "1"
      },
      "t_contract(ICosmicImpacts)12974": {
        "encoding": "inplace",
        "label": "contract ICosmicImpacts",
        "numberOfBytes": "20"
      },
      "t_contract(IERC20)1231": {
        "encoding": "inplace",
        "label": "contract IERC20",
        "numberOfBytes": "20"
      },
      "t_contract(IPrimordialPePe)12930": {
        "encoding": "inplace",
        "label": "contract IPrimordialPePe",
        "numberOfBytes": "20"
      },
      "t_contract(IPrimordialPlanets)12957": {
        "encoding": "inplace",
        "label": "contract IPrimordialPlanets",
        "numberOfBytes": "20"
      },
      "t_mapping(t_address,t_array(t_struct(Vest)12991_storage)dyn_storage)": {
        "encoding": "mapping",
        "key": "t_address",
        "label": "mapping(address => struct Vesting.Vest[])",
        "numberOfBytes": "32",
        "value": "t_array(t_struct(Vest)12991_storage)dyn_storage"
      },
      "t_mapping(t_address,t_struct(StakeImpact)13005_storage)": {
        "encoding": "mapping",
        "key": "t_address",
        "label": "mapping(address => struct Vesting.StakeImpact)",
        "numberOfBytes": "32",
        "value": "t_struct(StakeImpact)13005_storage"
      },
      "t_mapping(t_address,t_struct(StakePlanet)12998_storage)": {
        "encoding": "mapping",
        "key": "t_address",
        "label": "mapping(address => struct Vesting.StakePlanet)",
        "numberOfBytes": "32",
        "value": "t_struct(StakePlanet)12998_storage"
      },
      "t_struct(StakeImpact)13005_storage": {
        "encoding": "inplace",
        "label": "struct Vesting.StakeImpact",
        "members": [
          {
            "astId": 13000,
            "contract": "contracts/Vesting.sol:Vesting",
            "label": "nftId",
            "offset": 0,
            "slot": "0",
            "type": "t_uint256"
          },
          {
            "astId": 13002,
            "contract": "contracts/Vesting.sol:Vesting",
            "label": "startTime",
            "offset": 0,
            "slot": "1",
            "type": "t_uint256"
          },
          {
            "astId": 13004,
            "contract": "contracts/Vesting.sol:Vesting",
            "label": "staked",
            "offset": 0,
            "slot": "2",
            "type": "t_bool"
          }
        ],
        "numberOfBytes": "96"
      },
      "t_struct(StakePlanet)12998_storage": {
        "encoding": "inplace",
        "label": "struct Vesting.StakePlanet",
        "members": [
          {
            "astId": 12993,
            "contract": "contracts/Vesting.sol:Vesting",
            "label": "nftId",
            "offset": 0,
            "slot": "0",
            "type": "t_uint256"
          },
          {
            "astId": 12995,
            "contract": "contracts/Vesting.sol:Vesting",
            "label": "startTime",
            "offset": 0,
            "slot": "1",
            "type": "t_uint256"
          },
          {
            "astId": 12997,
            "contract": "contracts/Vesting.sol:Vesting",
            "label": "staked",
            "offset": 0,
            "slot": "2",
            "type": "t_bool"
          }
        ],
        "numberOfBytes": "96"
      },
      "t_struct(Vest)12991_storage": {
        "encoding": "inplace",
        "label": "struct Vesting.Vest",
        "members": [
          {
            "astId": 12982,
            "contract": "contracts/Vesting.sol:Vesting",
            "label": "amount",
            "offset": 0,
            "slot": "0",
            "type": "t_uint256"
          },
          {
            "astId": 12984,
            "contract": "contracts/Vesting.sol:Vesting",
            "label": "startTime",
            "offset": 0,
            "slot": "1",
            "type": "t_uint256"
          },
          {
            "astId": 12986,
            "contract": "contracts/Vesting.sol:Vesting",
            "label": "endTime",
            "offset": 0,
            "slot": "2",
            "type": "t_uint256"
          },
          {
            "astId": 12988,
            "contract": "contracts/Vesting.sol:Vesting",
            "label": "apr",
            "offset": 0,
            "slot": "3",
            "type": "t_uint256"
          },
          {
            "astId": 12990,
            "contract": "contracts/Vesting.sol:Vesting",
            "label": "withdrawn",
            "offset": 0,
            "slot": "4",
            "type": "t_bool"
          }
        ],
        "numberOfBytes": "160"
      },
      "t_uint256": {
        "encoding": "inplace",
        "label": "uint256",
        "numberOfBytes": "32"
      }
    }
  }
}