{
  "address": "0xCdEE06A091EB25A8B178d57e21f1E36c90F5F9B4",
  "abi": [
    {
      "inputs": [
        {
          "internalType": "address",
          "name": "_vestingToken",
          "type": "address"
        },
        {
          "internalType": "address",
          "name": "_primordialPePeToken",
          "type": "address"
        }
      ],
      "stateMutability": "nonpayable",
      "type": "constructor"
    },
    {
      "anonymous": false,
      "inputs": [
        {
          "indexed": true,
          "internalType": "address",
          "name": "previousOwner",
          "type": "address"
        },
        {
          "indexed": true,
          "internalType": "address",
          "name": "newOwner",
          "type": "address"
        }
      ],
      "name": "OwnershipTransferred",
      "type": "event"
    },
    {
      "inputs": [
        {
          "internalType": "uint256",
          "name": "_vestIndex",
          "type": "uint256"
        }
      ],
      "name": "claimRewards",
      "outputs": [],
      "stateMutability": "nonpayable",
      "type": "function"
    },
    {
      "inputs": [
        {
          "internalType": "uint256",
          "name": "_vestIndex",
          "type": "uint256"
        }
      ],
      "name": "emergencyWithdraw",
      "outputs": [],
      "stateMutability": "nonpayable",
      "type": "function"
    },
    {
      "inputs": [
        {
          "internalType": "uint256",
          "name": "duration",
          "type": "uint256"
        }
      ],
      "name": "findTimeBracketIndex",
      "outputs": [
        {
          "internalType": "uint256",
          "name": "",
          "type": "uint256"
        }
      ],
      "stateMutability": "view",
      "type": "function"
    },
    {
      "inputs": [
        {
          "internalType": "address",
          "name": "user",
          "type": "address"
        }
      ],
      "name": "getAllSlots",
      "outputs": [
        {
          "internalType": "bool[10]",
          "name": "",
          "type": "bool[10]"
        },
        {
          "components": [
            {
              "internalType": "uint256",
              "name": "amount",
              "type": "uint256"
            },
            {
              "internalType": "uint256",
              "name": "startTime",
              "type": "uint256"
            },
            {
              "internalType": "uint256",
              "name": "endTime",
              "type": "uint256"
            },
            {
              "internalType": "uint256",
              "name": "apr",
              "type": "uint256"
            },
            {
              "internalType": "bool",
              "name": "active",
              "type": "bool"
            }
          ],
          "internalType": "struct Vesting.Vest[]",
          "name": "",
          "type": "tuple[]"
        }
      ],
      "stateMutability": "view",
      "type": "function"
    },
    {
      "inputs": [
        {
          "internalType": "address",
          "name": "user",
          "type": "address"
        }
      ],
      "name": "getAllVests",
      "outputs": [
        {
          "components": [
            {
              "internalType": "uint256",
              "name": "amount",
              "type": "uint256"
            },
            {
              "internalType": "uint256",
              "name": "startTime",
              "type": "uint256"
            },
            {
              "internalType": "uint256",
              "name": "endTime",
              "type": "uint256"
            },
            {
              "internalType": "uint256",
              "name": "apr",
              "type": "uint256"
            },
            {
              "internalType": "bool",
              "name": "active",
              "type": "bool"
            }
          ],
          "internalType": "struct Vesting.Vest[]",
          "name": "",
          "type": "tuple[]"
        }
      ],
      "stateMutability": "view",
      "type": "function"
    },
    {
      "inputs": [
        {
          "internalType": "address",
          "name": "user",
          "type": "address"
        },
        {
          "internalType": "uint256",
          "name": "index",
          "type": "uint256"
        }
      ],
      "name": "getVest",
      "outputs": [
        {
          "components": [
            {
              "internalType": "uint256",
              "name": "amount",
              "type": "uint256"
            },
            {
              "internalType": "uint256",
              "name": "startTime",
              "type": "uint256"
            },
            {
              "internalType": "uint256",
              "name": "endTime",
              "type": "uint256"
            },
            {
              "internalType": "uint256",
              "name": "apr",
              "type": "uint256"
            },
            {
              "internalType": "bool",
              "name": "active",
              "type": "bool"
            }
          ],
          "internalType": "struct Vesting.Vest",
          "name": "",
          "type": "tuple"
        }
      ],
      "stateMutability": "view",
      "type": "function"
    },
    {
      "inputs": [
        {
          "internalType": "address",
          "name": "user",
          "type": "address"
        }
      ],
      "name": "getVestCount",
      "outputs": [
        {
          "internalType": "uint256",
          "name": "",
          "type": "uint256"
        }
      ],
      "stateMutability": "view",
      "type": "function"
    },
    {
      "inputs": [],
      "name": "mintablePrimordialPePeToken",
      "outputs": [
        {
          "internalType": "contract IPrimordialPePe",
          "name": "",
          "type": "address"
        }
      ],
      "stateMutability": "view",
      "type": "function"
    },
    {
      "inputs": [],
      "name": "owner",
      "outputs": [
        {
          "internalType": "address",
          "name": "",
          "type": "address"
        }
      ],
      "stateMutability": "view",
      "type": "function"
    },
    {
      "inputs": [],
      "name": "renounceOwnership",
      "outputs": [],
      "stateMutability": "nonpayable",
      "type": "function"
    },
    {
      "inputs": [
        {
          "internalType": "address",
          "name": "_primordialPePeToken",
          "type": "address"
        }
      ],
      "name": "setPrimordialPePeToken",
      "outputs": [],
      "stateMutability": "nonpayable",
      "type": "function"
    },
    {
      "inputs": [
        {
          "internalType": "address",
          "name": "_vestingToken",
          "type": "address"
        }
      ],
      "name": "setVestingToken",
      "outputs": [],
      "stateMutability": "nonpayable",
      "type": "function"
    },
    {
      "inputs": [
        {
          "internalType": "uint256",
          "name": "",
          "type": "uint256"
        }
      ],
      "name": "timeBrackets",
      "outputs": [
        {
          "internalType": "uint256",
          "name": "",
          "type": "uint256"
        }
      ],
      "stateMutability": "view",
      "type": "function"
    },
    {
      "inputs": [
        {
          "internalType": "address",
          "name": "newOwner",
          "type": "address"
        }
      ],
      "name": "transferOwnership",
      "outputs": [],
      "stateMutability": "nonpayable",
      "type": "function"
    },
    {
      "inputs": [
        {
          "internalType": "address",
          "name": "",
          "type": "address"
        },
        {
          "internalType": "uint256",
          "name": "",
          "type": "uint256"
        }
      ],
      "name": "userVests",
      "outputs": [
        {
          "internalType": "uint256",
          "name": "amount",
          "type": "uint256"
        },
        {
          "internalType": "uint256",
          "name": "startTime",
          "type": "uint256"
        },
        {
          "internalType": "uint256",
          "name": "endTime",
          "type": "uint256"
        },
        {
          "internalType": "uint256",
          "name": "apr",
          "type": "uint256"
        },
        {
          "internalType": "bool",
          "name": "active",
          "type": "bool"
        }
      ],
      "stateMutability": "view",
      "type": "function"
    },
    {
      "inputs": [
        {
          "internalType": "address",
          "name": "",
          "type": "address"
        }
      ],
      "name": "vestCount",
      "outputs": [
        {
          "internalType": "uint256",
          "name": "",
          "type": "uint256"
        }
      ],
      "stateMutability": "view",
      "type": "function"
    },
    {
      "inputs": [
        {
          "internalType": "uint256",
          "name": "_amount",
          "type": "uint256"
        },
        {
          "internalType": "uint256",
          "name": "_timeIndex",
          "type": "uint256"
        }
      ],
      "name": "vestTokens",
      "outputs": [],
      "stateMutability": "nonpayable",
      "type": "function"
    },
    {
      "inputs": [],
      "name": "vestingToken",
      "outputs": [
        {
          "internalType": "contract IERC20",
          "name": "",
          "type": "address"
        }
      ],
      "stateMutability": "view",
      "type": "function"
    }
  ],
  "transactionHash": "0xbd49e762039208a4493445bef34a41392e753b6e638bec218128e5baf4381386",
  "args": [
    "0x46cB0AfFA874719c7b273Df80954CC98199e2d69",
    "0xB6Ad6AD0364Eb5E8B109a55F01F4F68971B40E2B"
  ],
  "numDeployments": 1,
  "solcInputHash": "aa174bef04d09a81dbefaeeac5918fa6",
  "bytecode": "0x6080346200021d57620017af906001600160401b03601f38849003908101601f1916830190828211848310176200022257808491604096879485528339810103126200021d57620000508262000238565b6200005f602080940162000238565b60008054336001600160a01b031980831682178455966001600160a01b039694959493909290919087167f8be0079c531659141344cd1fd0a4f28419497f9722a3daafe3b4186f6b6457e08380a38751926101808401908111848210176200020957885262278d008352624f1a0060208401526276a70088840152629e3400606084015262c5c100608084015262ed4e0060a0840152630114db0060c084015263013c680060e0840152630163f50061010084015263018b82006101208401526301b30f006101408401526301e1338061016084015260035492600c93600c60035580600c10620001a6575b5090869493926003825260208220915b8481106200018a57505050505016836001541617600155169060025416176002555161156190816200024e8239f35b835163ffffffff1681840155889650928101926001016200015b565b600383527fc2575a0e9e593c00f959f8c92f12db2869c3395a3b0502d05e2516446f71f85b017fc2575a0e9e593c00f959f8c92f12db2869c3395a3b0502d05e2516446f71f8675b818110620001fd57506200014b565b838155600101620001ee565b634e487b7160e01b82526041600452602482fd5b600080fd5b634e487b7160e01b600052604160045260246000fd5b51906001600160a01b03821682036200021d5756fe6040608081526004908136101561001557600080fd5b6000803560e01c80630962ef7914610c0e57806319d152fa14610bd95780631dbc04ae14610b7557806348f5eaf914610af857806351706aa114610abf5780635312ea8e14610a175780635a4665c3146109b3578063659446fc146108a6578063715018a61461082757806379d4de18146105c55780638da5cb5b14610592578063a2f4a3ff1461055d578063a73214ed14610336578063af8033c31461025c578063e842698b14610214578063f113450214610214578063f2fde38b1461010e5763fdafcec3146100e657600080fd5b3461010b57602060031936011261010b575061010460209235611107565b9051908152f35b80fd5b50913461021057602060031936011261021057610129610e53565b9061013261120a565b73ffffffffffffffffffffffffffffffffffffffff8092169283156101a7575050600054827fffffffffffffffffffffffff0000000000000000000000000000000000000000821617600055167f8be0079c531659141344cd1fd0a4f28419497f9722a3daafe3b4186f6b6457e0600080a380f35b906020608492519162461bcd60e51b8352820152602660248201527f4f776e61626c653a206e6577206f776e657220697320746865207a65726f206160448201527f64647265737300000000000000000000000000000000000000000000000000006064820152fd5b8280fd5b509034610258576020600319360112610258578060209273ffffffffffffffffffffffffffffffffffffffff610248610e53565b1681526005845220549051908152f35b5080fd5b509190346102105780600319360112610210578060ff6103349260a095610281610e53565b73ffffffffffffffffffffffffffffffffffffffff602435916102a26110c8565b501680835260056020526102ba848420548310610f33565b82528660205282822090825260205220938251946102d786611025565b80548652600181015460208701526002810154848701526003810154606087015201541615156080840152518092608080918051845260208101516020850152604081015160408501526060810151606085015201511515910152565bf35b509034610258576020928360031936011261021057610353610e53565b73ffffffffffffffffffffffffffffffffffffffff83519161037483611057565b610140809336903716928385526006865280852095815196549160ff9586841615158952868460081c161515838a0152868460101c161515828a0152606093878160181c16151560608b0152876080918181871c16151560808d0152818160281c16151560a08d0152818160301c16151560c08d0152818160381c16151560e08d01528181861c1615156101008d015260481c1615156101208b01526104198a611057565b82519761016097888a018a811067ffffffffffffffff82111761054857859c9b9c52600a96600a8b5260005b89811061052b57508c5b888110610499575050505050505195869097905b83821061048257878061047e8989808a850152830190610ec8565b0390f35b82806001928b511515815201990191019097610463565b808e8e9f9e928e8b88888d8d6001998760051b0151156104c5575b5050505050505050019c9b9c61044f565b87829161051d9952838652818120888252865220908051946104e686611025565b825486528a8301549086015260028201549085015260038101548a85015201541615158a82015261051783836110f3565b526110f3565b508d818e8b88888d8d6104b4565b808c9d9e9d89809361053b6110c8565b92010152019c9b9c610445565b604182634e487b7160e01b6000525260246000fd5b50903461025857816003193601126102585760209073ffffffffffffffffffffffffffffffffffffffff600254169051908152f35b50903461025857816003193601126102585773ffffffffffffffffffffffffffffffffffffffff60209254169051908152f35b50919034610210578060031936011261021057813590602490813533865260209060058252600a8388205410156107e6576003548110156107a5576106093361126f565b9461067173ffffffffffffffffffffffffffffffffffffffff600154168551907f23b872dd000000000000000000000000000000000000000000000000000000008683015233888301523060448301528360648301526064825261066c82611025565b6112ea565b8160020191826002116107935761068790610e7b565b90549060031b1c42019182421161077f57600593929188918651916106ab83611025565b82528482019342855287830190815260608301918252608083019460018652338d528487528c8b8a822091528752888d2093518455516001840155516002830155516003820155019051151560ff60ff1983541691161790553387526006815261071785848920611097565b60ff82549160031b1b19169055338752528420928354809314610738578480f35b7fffffffffffffffffffffffffffffffffffffffffffffffffffffffffffffffff831461076e5750506001019055388080808480f35b60118591634e487b7160e01b835252fd5b85601189634e487b7160e01b600052526000fd5b858960118a634e487b7160e01b835252fd5b6064866014868587519362461bcd60e51b85528401528201527f496e76616c69642074696d6520627261636b65740000000000000000000000006044820152fd5b606486601d868587519362461bcd60e51b85528401528201527f4d61782076657374696e6720706f736974696f6e7320726561636865640000006044820152fd5b503461010b578060031936011261010b5761084061120a565b600073ffffffffffffffffffffffffffffffffffffffff81547fffffffffffffffffffffffff000000000000000000000000000000000000000081168355167f8be0079c531659141344cd1fd0a4f28419497f9722a3daafe3b4186f6b6457e08280a380f35b509034610258576020918260031936011261010b5773ffffffffffffffffffffffffffffffffffffffff6108d8610e53565b16938482526005845282822054916108ef836110b0565b956108fc85519788611074565b838752601f1961090b856110b0565b018660005b82811061099d57505050815b8481106109355785518781528061047e818a018b610ec8565b600190828452848852868420818552885286842060ff8689519261095884611025565b80548452858101548c85015260028101548b850152600381015460608501520154161515608082015261098b828b6110f3565b52610996818a6110f3565b500161091c565b6109a56110c8565b82828c010152018790610910565b503461010b57602060031936011261010b5773ffffffffffffffffffffffffffffffffffffffff6109e2610e53565b6109ea61120a565b167fffffffffffffffffffffffff0000000000000000000000000000000000000000600254161760025580f35b50913461021057602060031936011261021057610aa8918135913385526005602052610a47828620548410610f33565b33855280602052818520838652602052610a9182862091820191610a6e60ff845416610f7e565b73ffffffffffffffffffffffffffffffffffffffff6001541690549033906111a6565b60ff19815416905533845260066020528320611097565b81549060031b9060ff6001831b921b191617905580f35b50913461021057602060031936011261021057359160035483101561010b5750610aea602092610e7b565b90549060031b1c9051908152f35b509190346102105780600319360112610210578060a09373ffffffffffffffffffffffffffffffffffffffff610b2c610e53565b1681528360205281812060243582526020522080549260018201549260ff6002840154926003850154940154169381519586526020860152840152606083015215156080820152f35b503461010b57602060031936011261010b5773ffffffffffffffffffffffffffffffffffffffff610ba4610e53565b610bac61120a565b167fffffffffffffffffffffffff0000000000000000000000000000000000000000600154161760015580f35b50903461025857816003193601126102585760209073ffffffffffffffffffffffffffffffffffffffff600154169051908152f35b50903461025857602090816003193601126102105783359133845260058152610c3b828520548410610f33565b338452848152818420838552815281842085810190610c5d60ff835416610f7e565b6002810154804210610e1257600182015490610c81610c7c8383610fef565b611107565b6003541115610dd057600383015491670de0b6b3a76400009182840293808504841490151715610dbd57618e9462015180610cc4610cd4969594610cce94610fef565b0493048554611012565b04611012565b9673ffffffffffffffffffffffffffffffffffffffff97886002541690813b15610db95786517f40c10f1900000000000000000000000000000000000000000000000000000000815233848201908152602081019290925291899183919082908490829060400103925af18015610daf57610d7a575b505090610d6760069392610aa897986001541690549033906111a6565b60ff198154169055338652528320611097565b67ffffffffffffffff819998929911610d9c578552959650610d676006610d4a565b60248260418b634e487b7160e01b835252fd5b86513d8a823e3d90fd5b8880fd5b60248a60118d634e487b7160e01b835252fd5b6064898688519162461bcd60e51b8352820152601660248201527f54696d6520627261636b6574206e6f7420666f756e64000000000000000000006044820152fd5b606488858088519262461bcd60e51b845283015260248201527f56657374696e6720706572696f64206e6f742079657420636f6d706c657465646044820152fd5b6004359073ffffffffffffffffffffffffffffffffffffffff82168203610e7657565b600080fd5b600354811015610eb25760036000527fc2575a0e9e593c00f959f8c92f12db2869c3395a3b0502d05e2516446f71f85b0190600090565b634e487b7160e01b600052603260045260246000fd5b90815180825260208080930193019160005b828110610ee8575050505090565b909192938260a082610f276001948951608080918051845260208101516020850152604081015160408501526060810151606085015201511515910152565b01950193929101610eda565b15610f3a57565b606460405162461bcd60e51b815260206004820152601260248201527f496e76616c6964207665737420696e64657800000000000000000000000000006044820152fd5b15610f8557565b608460405162461bcd60e51b815260206004820152602260248201527f56657374206e6f7420616374697665206f7220616c726561647920636c61696d60448201527f65640000000000000000000000000000000000000000000000000000000000006064820152fd5b91908203918211610ffc57565b634e487b7160e01b600052601160045260246000fd5b81810292918115918404141715610ffc57565b60a0810190811067ffffffffffffffff82111761104157604052565b634e487b7160e01b600052604160045260246000fd5b610140810190811067ffffffffffffffff82111761104157604052565b90601f601f19910116810190811067ffffffffffffffff82111761104157604052565b919091600a831015610eb257601f908360051c01921690565b67ffffffffffffffff81116110415760051b60200190565b604051906110d582611025565b60006080838281528260208201528260408201528260608201520152565b8051821015610eb25760209160051b010190565b60009060038054925b83811061118157608460405162461bcd60e51b815260206004820152602660248201527f4475726174696f6e20646f6573206e6f742066697420616e792074696d65206260448201527f7261636b657400000000000000000000000000000000000000000000000000006064820152fd5b61118a81610e7b565b905490831b1c83111561119f57600101611110565b9250505090565b6040517fa9059cbb00000000000000000000000000000000000000000000000000000000602082015273ffffffffffffffffffffffffffffffffffffffff9290921660248301526044808301939093529181526112089161066c606483611074565b565b73ffffffffffffffffffffffffffffffffffffffff60005416330361122b57565b606460405162461bcd60e51b815260206004820152602060248201527f4f776e61626c653a2063616c6c6572206973206e6f7420746865206f776e65726044820152fd5b60005b600a81106112a2575073ffffffffffffffffffffffffffffffffffffffff16600052600560205260406000205490565b73ffffffffffffffffffffffffffffffffffffffff8216600052600660205260ff6112d1826040600020611097565b90549060031b1c166112e557600101611272565b905090565b73ffffffffffffffffffffffffffffffffffffffff16906040516040810167ffffffffffffffff9082811082821117611041576040526020938483527f5361666545524332303a206c6f772d6c6576656c2063616c6c206661696c6564858401526000808587829751910182855af1903d15611450573d92831161143c57906113939392916040519261138688601f19601f8401160185611074565b83523d868885013e61145b565b805191821591848315611418575b5050509050156113ae5750565b6084906040519062461bcd60e51b82526004820152602a60248201527f5361666545524332303a204552433230206f7065726174696f6e20646964206e60448201527f6f742073756363656564000000000000000000000000000000000000000000006064820152fd5b9193818094500103126102585782015190811515820361010b5750803880846113a1565b602485634e487b7160e01b81526041600452fd5b906113939392506060915b919290156114bc575081511561146f575090565b3b156114785790565b606460405162461bcd60e51b815260206004820152601d60248201527f416464726573733a2063616c6c20746f206e6f6e2d636f6e74726163740000006044820152fd5b8251909150156114cf5750805190602001fd5b6040519062461bcd60e51b825281602080600483015282519283602484015260005b84811061151457505050601f19601f836000604480968601015201168101030190fd5b8181018301518682016044015285935082016114f156fea264697066735822122030cbebd6184f602f4e870697f01f583cf282b43298ae3ab7b367d7f9ad32077064736f6c63430008180033",
  "devdoc": {
    "kind": "dev",
    "methods": {
      "owner()": {
        "details": "Returns the address of the current owner."
      },
      "renounceOwnership()": {
        "details": "Leaves the contract without owner. It will not be possible to call `onlyOwner` functions. Can only be called by the current owner. NOTE: Renouncing ownership will leave the contract without an owner, thereby disabling any functionality that is only available to the owner."
      },
      "transferOwnership(address)": {
        "details": "Transfers ownership of the contract to a new account (`newOwner`). Can only be called by the current owner."
      }
    },
    "version": 1
  },
  "userdoc": {
    "kind": "user",
    "methods": {},
    "version": 1
  },
  "storageLayout": {
    "storage": [
      {
        "astId": 7,
        "contract": "contracts/Vesting.sol:Vesting",
        "label": "_owner",
        "offset": 0,
        "slot": "0",
        "type": "t_address"
      },
      {
        "astId": 995,
        "contract": "contracts/Vesting.sol:Vesting",
        "label": "vestingToken",
        "offset": 0,
        "slot": "1",
        "type": "t_contract(IERC20)190"
      },
      {
        "astId": 998,
        "contract": "contracts/Vesting.sol:Vesting",
        "label": "mintablePrimordialPePeToken",
        "offset": 0,
        "slot": "2",
        "type": "t_contract(IPrimordialPePe)975"
      },
      {
        "astId": 1014,
        "contract": "contracts/Vesting.sol:Vesting",
        "label": "timeBrackets",
        "offset": 0,
        "slot": "3",
        "type": "t_array(t_uint256)dyn_storage"
      },
      {
        "astId": 1021,
        "contract": "contracts/Vesting.sol:Vesting",
        "label": "userVests",
        "offset": 0,
        "slot": "4",
        "type": "t_mapping(t_address,t_mapping(t_uint256,t_struct(Vest)992_storage))"
      },
      {
        "astId": 1025,
        "contract": "contracts/Vesting.sol:Vesting",
        "label": "vestCount",
        "offset": 0,
        "slot": "5",
        "type": "t_mapping(t_address,t_uint256)"
      },
      {
        "astId": 1031,
        "contract": "contracts/Vesting.sol:Vesting",
        "label": "availableSlots",
        "offset": 0,
        "slot": "6",
        "type": "t_mapping(t_address,t_array(t_bool)10_storage)"
      }
    ],
    "types": {
      "t_address": {
        "encoding": "inplace",
        "label": "address",
        "numberOfBytes": "20"
      },
      "t_array(t_bool)10_storage": {
        "base": "t_bool",
        "encoding": "inplace",
        "label": "bool[10]",
        "numberOfBytes": "32"
      },
      "t_array(t_uint256)dyn_storage": {
        "base": "t_uint256",
        "encoding": "dynamic_array",
        "label": "uint256[]",
        "numberOfBytes": "32"
      },
      "t_bool": {
        "encoding": "inplace",
        "label": "bool",
        "numberOfBytes": "1"
      },
      "t_contract(IERC20)190": {
        "encoding": "inplace",
        "label": "contract IERC20",
        "numberOfBytes": "20"
      },
      "t_contract(IPrimordialPePe)975": {
        "encoding": "inplace",
        "label": "contract IPrimordialPePe",
        "numberOfBytes": "20"
      },
      "t_mapping(t_address,t_array(t_bool)10_storage)": {
        "encoding": "mapping",
        "key": "t_address",
        "label": "mapping(address => bool[10])",
        "numberOfBytes": "32",
        "value": "t_array(t_bool)10_storage"
      },
      "t_mapping(t_address,t_mapping(t_uint256,t_struct(Vest)992_storage))": {
        "encoding": "mapping",
        "key": "t_address",
        "label": "mapping(address => mapping(uint256 => struct Vesting.Vest))",
        "numberOfBytes": "32",
        "value": "t_mapping(t_uint256,t_struct(Vest)992_storage)"
      },
      "t_mapping(t_address,t_uint256)": {
        "encoding": "mapping",
        "key": "t_address",
        "label": "mapping(address => uint256)",
        "numberOfBytes": "32",
        "value": "t_uint256"
      },
      "t_mapping(t_uint256,t_struct(Vest)992_storage)": {
        "encoding": "mapping",
        "key": "t_uint256",
        "label": "mapping(uint256 => struct Vesting.Vest)",
        "numberOfBytes": "32",
        "value": "t_struct(Vest)992_storage"
      },
      "t_struct(Vest)992_storage": {
        "encoding": "inplace",
        "label": "struct Vesting.Vest",
        "members": [
          {
            "astId": 983,
            "contract": "contracts/Vesting.sol:Vesting",
            "label": "amount",
            "offset": 0,
            "slot": "0",
            "type": "t_uint256"
          },
          {
            "astId": 985,
            "contract": "contracts/Vesting.sol:Vesting",
            "label": "startTime",
            "offset": 0,
            "slot": "1",
            "type": "t_uint256"
          },
          {
            "astId": 987,
            "contract": "contracts/Vesting.sol:Vesting",
            "label": "endTime",
            "offset": 0,
            "slot": "2",
            "type": "t_uint256"
          },
          {
            "astId": 989,
            "contract": "contracts/Vesting.sol:Vesting",
            "label": "apr",
            "offset": 0,
            "slot": "3",
            "type": "t_uint256"
          },
          {
            "astId": 991,
            "contract": "contracts/Vesting.sol:Vesting",
            "label": "active",
            "offset": 0,
            "slot": "4",
            "type": "t_bool"
          }
        ],
        "numberOfBytes": "160"
      },
      "t_uint256": {
        "encoding": "inplace",
        "label": "uint256",
        "numberOfBytes": "32"
      }
    }
  }
}