{
  "address": "0x959922bE3CAee4b8Cd9a407cc3ac1C251C2007B1",
  "abi": [
    {
      "inputs": [
        {
          "internalType": "address",
          "name": "_primordialLPAddress",
          "type": "address"
        },
        {
          "internalType": "address",
          "name": "_primordialPePeAddress",
          "type": "address"
        }
      ],
      "stateMutability": "nonpayable",
      "type": "constructor"
    },
    {
      "anonymous": false,
      "inputs": [
        {
          "indexed": true,
          "internalType": "address",
          "name": "user",
          "type": "address"
        },
        {
          "indexed": false,
          "internalType": "uint256",
          "name": "rewardAmount",
          "type": "uint256"
        }
      ],
      "name": "Claimed",
      "type": "event"
    },
    {
      "anonymous": false,
      "inputs": [
        {
          "indexed": true,
          "internalType": "address",
          "name": "previousOwner",
          "type": "address"
        },
        {
          "indexed": true,
          "internalType": "address",
          "name": "newOwner",
          "type": "address"
        }
      ],
      "name": "OwnershipTransferred",
      "type": "event"
    },
    {
      "anonymous": false,
      "inputs": [
        {
          "indexed": true,
          "internalType": "address",
          "name": "user",
          "type": "address"
        },
        {
          "indexed": false,
          "internalType": "uint256",
          "name": "amount",
          "type": "uint256"
        }
      ],
      "name": "StakeLP",
      "type": "event"
    },
    {
      "anonymous": false,
      "inputs": [
        {
          "indexed": true,
          "internalType": "address",
          "name": "user",
          "type": "address"
        },
        {
          "indexed": true,
          "internalType": "address",
          "name": "nftAddress",
          "type": "address"
        },
        {
          "indexed": false,
          "internalType": "uint256",
          "name": "tokenId",
          "type": "uint256"
        }
      ],
      "name": "StakeNFT",
      "type": "event"
    },
    {
      "inputs": [],
      "name": "boostedRewardCalculator",
      "outputs": [
        {
          "internalType": "contract BoostedRewardCalculator",
          "name": "",
          "type": "address"
        }
      ],
      "stateMutability": "view",
      "type": "function"
    },
    {
      "inputs": [
        {
          "internalType": "uint256",
          "name": "_stakedAmount",
          "type": "uint256"
        },
        {
          "internalType": "address",
          "name": "_staker",
          "type": "address"
        }
      ],
      "name": "calculateBoostedPrimordial",
      "outputs": [
        {
          "internalType": "uint256",
          "name": "",
          "type": "uint256"
        }
      ],
      "stateMutability": "view",
      "type": "function"
    },
    {
      "inputs": [
        {
          "internalType": "uint256",
          "name": "_stakedAmount",
          "type": "uint256"
        }
      ],
      "name": "claimReward",
      "outputs": [],
      "stateMutability": "nonpayable",
      "type": "function"
    },
    {
      "inputs": [],
      "name": "cosmicimpactsAddress",
      "outputs": [
        {
          "internalType": "address",
          "name": "",
          "type": "address"
        }
      ],
      "stateMutability": "view",
      "type": "function"
    },
    {
      "inputs": [
        {
          "internalType": "uint256",
          "name": "_stakedAmount",
          "type": "uint256"
        },
        {
          "internalType": "address",
          "name": "_staker",
          "type": "address"
        }
      ],
      "name": "getBasePrimordialOwed",
      "outputs": [
        {
          "internalType": "uint256",
          "name": "",
          "type": "uint256"
        }
      ],
      "stateMutability": "view",
      "type": "function"
    },
    {
      "inputs": [
        {
          "internalType": "address",
          "name": "_staker",
          "type": "address"
        }
      ],
      "name": "getLockedNFTInfo",
      "outputs": [
        {
          "internalType": "address",
          "name": "nftCollectionAddress",
          "type": "address"
        },
        {
          "internalType": "bool",
          "name": "isNFTStaked",
          "type": "bool"
        },
        {
          "internalType": "uint256",
          "name": "stakedNFTId",
          "type": "uint256"
        }
      ],
      "stateMutability": "view",
      "type": "function"
    },
    {
      "inputs": [
        {
          "internalType": "address",
          "name": "_address",
          "type": "address"
        }
      ],
      "name": "getPrimordialEmission",
      "outputs": [
        {
          "internalType": "uint256",
          "name": "",
          "type": "uint256"
        }
      ],
      "stateMutability": "view",
      "type": "function"
    },
    {
      "inputs": [
        {
          "internalType": "address",
          "name": "_staker",
          "type": "address"
        }
      ],
      "name": "getStakerInfo",
      "outputs": [
        {
          "internalType": "uint256",
          "name": "stakedAmount",
          "type": "uint256"
        },
        {
          "internalType": "bool",
          "name": "nftStaked",
          "type": "bool"
        },
        {
          "internalType": "uint256",
          "name": "stakedNFTId",
          "type": "uint256"
        },
        {
          "internalType": "uint256",
          "name": "lpStakeTime",
          "type": "uint256"
        },
        {
          "internalType": "uint256",
          "name": "lpClaimTime",
          "type": "uint256"
        }
      ],
      "stateMutability": "view",
      "type": "function"
    },
    {
      "inputs": [
        {
          "internalType": "address",
          "name": "_user",
          "type": "address"
        },
        {
          "internalType": "uint256",
          "name": "_nftId",
          "type": "uint256"
        }
      ],
      "name": "isNFTStaked",
      "outputs": [
        {
          "internalType": "bool",
          "name": "",
          "type": "bool"
        }
      ],
      "stateMutability": "view",
      "type": "function"
    },
    {
      "inputs": [],
      "name": "isRewardBoosterEnabled",
      "outputs": [
        {
          "internalType": "bool",
          "name": "",
          "type": "bool"
        }
      ],
      "stateMutability": "view",
      "type": "function"
    },
    {
      "inputs": [
        {
          "internalType": "address",
          "name": "",
          "type": "address"
        }
      ],
      "name": "lpClaimTimes",
      "outputs": [
        {
          "internalType": "uint256",
          "name": "",
          "type": "uint256"
        }
      ],
      "stateMutability": "view",
      "type": "function"
    },
    {
      "inputs": [
        {
          "internalType": "address",
          "name": "",
          "type": "address"
        }
      ],
      "name": "lpStakeTimes",
      "outputs": [
        {
          "internalType": "uint256",
          "name": "",
          "type": "uint256"
        }
      ],
      "stateMutability": "view",
      "type": "function"
    },
    {
      "inputs": [
        {
          "internalType": "address",
          "name": "",
          "type": "address"
        }
      ],
      "name": "nftAddress",
      "outputs": [
        {
          "internalType": "address",
          "name": "",
          "type": "address"
        }
      ],
      "stateMutability": "view",
      "type": "function"
    },
    {
      "inputs": [],
      "name": "owner",
      "outputs": [
        {
          "internalType": "address",
          "name": "",
          "type": "address"
        }
      ],
      "stateMutability": "view",
      "type": "function"
    },
    {
      "inputs": [],
      "name": "primordialLPToken",
      "outputs": [
        {
          "internalType": "contract IERC20",
          "name": "",
          "type": "address"
        }
      ],
      "stateMutability": "view",
      "type": "function"
    },
    {
      "inputs": [],
      "name": "primordialPePeToken",
      "outputs": [
        {
          "internalType": "contract IPrimordialPePe",
          "name": "",
          "type": "address"
        }
      ],
      "stateMutability": "view",
      "type": "function"
    },
    {
      "inputs": [],
      "name": "primordialplanetsAddress",
      "outputs": [
        {
          "internalType": "address",
          "name": "",
          "type": "address"
        }
      ],
      "stateMutability": "view",
      "type": "function"
    },
    {
      "inputs": [],
      "name": "renounceOwnership",
      "outputs": [],
      "stateMutability": "nonpayable",
      "type": "function"
    },
    {
      "inputs": [
        {
          "internalType": "address",
          "name": "_boostedRewardCalculator",
          "type": "address"
        }
      ],
      "name": "setBoostedRewardCalculator",
      "outputs": [],
      "stateMutability": "nonpayable",
      "type": "function"
    },
    {
      "inputs": [
        {
          "internalType": "address",
          "name": "_cosmicimpactsAddress",
          "type": "address"
        }
      ],
      "name": "setCosmicImpactContract",
      "outputs": [],
      "stateMutability": "nonpayable",
      "type": "function"
    },
    {
      "inputs": [
        {
          "internalType": "address",
          "name": "_primordialLPAddress",
          "type": "address"
        }
      ],
      "name": "setPrimordialLPToken",
      "outputs": [],
      "stateMutability": "nonpayable",
      "type": "function"
    },
    {
      "inputs": [
        {
          "internalType": "address",
          "name": "_primordialPePeAddress",
          "type": "address"
        }
      ],
      "name": "setPrimordialPePe",
      "outputs": [],
      "stateMutability": "nonpayable",
      "type": "function"
    },
    {
      "inputs": [
        {
          "internalType": "address",
          "name": "_primordialplanetsAddress",
          "type": "address"
        }
      ],
      "name": "setPrimordialPlanetsContract",
      "outputs": [],
      "stateMutability": "nonpayable",
      "type": "function"
    },
    {
      "inputs": [
        {
          "internalType": "uint256",
          "name": "amount",
          "type": "uint256"
        }
      ],
      "name": "stakeLPToken",
      "outputs": [],
      "stateMutability": "nonpayable",
      "type": "function"
    },
    {
      "inputs": [
        {
          "internalType": "uint256",
          "name": "_nftId",
          "type": "uint256"
        }
      ],
      "name": "stakeNFTById",
      "outputs": [],
      "stateMutability": "nonpayable",
      "type": "function"
    },
    {
      "inputs": [
        {
          "internalType": "address",
          "name": "",
          "type": "address"
        }
      ],
      "name": "stakers",
      "outputs": [
        {
          "internalType": "uint256",
          "name": "stakedAmount",
          "type": "uint256"
        },
        {
          "internalType": "bool",
          "name": "lpStaked",
          "type": "bool"
        },
        {
          "internalType": "bool",
          "name": "nftStaked",
          "type": "bool"
        }
      ],
      "stateMutability": "view",
      "type": "function"
    },
    {
      "inputs": [
        {
          "internalType": "bool",
          "name": "_enabled",
          "type": "bool"
        }
      ],
      "name": "toggleRewardBooster",
      "outputs": [],
      "stateMutability": "nonpayable",
      "type": "function"
    },
    {
      "inputs": [
        {
          "internalType": "address",
          "name": "newOwner",
          "type": "address"
        }
      ],
      "name": "transferOwnership",
      "outputs": [],
      "stateMutability": "nonpayable",
      "type": "function"
    },
    {
      "inputs": [
        {
          "internalType": "uint256",
          "name": "_stakedAmount",
          "type": "uint256"
        }
      ],
      "name": "unstakeLPToken",
      "outputs": [],
      "stateMutability": "nonpayable",
      "type": "function"
    },
    {
      "inputs": [
        {
          "internalType": "uint256",
          "name": "_nftId",
          "type": "uint256"
        }
      ],
      "name": "unstakeNFTById",
      "outputs": [],
      "stateMutability": "nonpayable",
      "type": "function"
    }
  ],
  "transactionHash": "0xdd7e158ad3bc13e163b5d12f385145fbaf12f72b0f1865abe1ad7fad9a71436c",
  "args": [
    "0x60bd6109B4C0E37a23b846f6e9b62b3cB1Bb8813",
    "0xa9Bc7a237a84b9597736209dB590149b75996841"
  ],
  "numDeployments": 1,
  "solcInputHash": "532e0af5186829f69afa7977106f18ef",
  "bytecode": "0x608034620000d757601f6200246a38819003918201601f19168301916001600160401b03831184841017620000dc578084926040948552833981010312620000d7576200005a60206200005283620000f2565b9201620000f2565b60008054336001600160a01b0319808316821784556040519590946001600160a01b03949093859391908416907f8be0079c531659141344cd1fd0a4f28419497f9722a3daafe3b4186f6b6457e09080a3600180551683600254161760025516816005541617600555600654166006556123629081620001088239f35b600080fd5b634e487b7160e01b600052604160045260246000fd5b51906001600160a01b0382168203620000d75756fe6040608081526004908136101561001557600080fd5b600091823560e01c908163032c529b1461175e57816304cf232e1461171257816305664cf7146116ea5781630eb10dac146114925781631a05d10e1461146a5781631cdcdff9146114425781633655bfa61461140b578163399a8e0a146113bf5781633d531fd414611325578163457df5d514610ef2578163477cfb2314610ec857816350a2e03f14610ea057816358077dfa14610c63578163715018a614610bfc578163733bdef014610b5857816385b6f12814610b215781638acd11e0146108b45781638da5cb5b1461088e5781639168ae721461083957816399d2041f146107ff578163a1415b13146107d7578163a35436a6146107b0578163ae169a50146104e3578163aecc2000146103e9578163af98e5fa14610392578163b72bd0f214610332578163b99b5c21146102d8578163e261197614610285578163f2fde38b14610197575063fd3d856e1461016d57600080fd5b346101935781600319360112610193576020906001600160a01b03600554169051908152f35b5080fd5b905034610281576020600319360112610281576101b26117a9565b906101bb611ddd565b6001600160a01b038092169283156102185750506000548273ffffffffffffffffffffffffffffffffffffffff19821617600055167f8be0079c531659141344cd1fd0a4f28419497f9722a3daafe3b4186f6b6457e0600080a380f35b906020608492519162461bcd60e51b8352820152602660248201527f4f776e61626c653a206e6577206f776e657220697320746865207a65726f206160448201527f64647265737300000000000000000000000000000000000000000000000000006064820152fd5b8280fd5b5050346101935780600319360112610193576102cf6020926001600160a01b036102ad6117a9565b1681526008845282602435912060019160005201602052604060002054151590565b90519015158152f35b833461032f57602060031936011261032f576001600160a01b036102fa6117a9565b610302611ddd565b1661030e811515611d92565b73ffffffffffffffffffffffffffffffffffffffff19600554161760055580f35b80fd5b505034610193576020600319360112610193576103836020926001600160a01b0361035b6117a9565b168152600a845261036f83822054426117d5565b62015180908181101561038a57505061215c565b9051908152f35b04905061215c565b833461032f57602060031936011261032f576001600160a01b036103b46117a9565b6103bc611ddd565b166103c8811515611d92565b73ffffffffffffffffffffffffffffffffffffffff19600254161760025580f35b83915034610193576020600319360112610193578035801515810361028157610410611ddd565b600654916001600160a01b039182841691816104608489516104318161198f565b602081527f426f6f7374656452657761726443616c63756c61746f7220616464726573733b6020820152611f90565b61049b575b508473ffffffffffffffffffffffffffffffffffffffff199495965050600014610494575b1691161760065580f35b508361048a565b8261046557606490602088519162461bcd60e51b8352820152601e60248201527f52657761726420626f6f737465722061646472657373206e6f742073657400006044820152fd5b91905034610281576020806003193601126107505782356105026120b2565b61054083516105108161198f565b601c81527f436c61696d696e672072657761726420666f7220616464726573733a00000000848201523390611f90565b338552600782528285206001015460081c60ff161561079f576105a090610599845161056b8161198f565b601a81527f43616c63756c6174696e6720626f6f737465642072657761726400000000000085820152612107565b33906119ce565b926105de8484516105b08161198f565b600f81527f426f6f73746564207265776172643a000000000000000000000000000000000085820152611f1f565b831561075e57849061062284516105f48161198f565b600e81527f4d696e74696e672072657761726400000000000000000000000000000000000085820152612107565b6001600160a01b0360055416803b156102815784517f40c10f190000000000000000000000000000000000000000000000000000000081523392810192835260208301879052918391839182908490829060400103925af180156107545761073c575b5050816106e57fd8138f8a3f377c5259ca548e70e4c2de94f129f5a11036a15b69513cba2b426a93516106b78161198f565b600d81527f526577617264206d696e7465640000000000000000000000000000000000000084820152612107565b6107228482516106f48161198f565b600e81527f726577617264206d696e7465643a00000000000000000000000000000000000085820152611f1f565b338552600b82524281862055519283523392a26001805580f35b61074590611965565b610750578338610685565b8380fd5b84513d84823e3d90fd5b90606492519162461bcd60e51b8352820152601460248201527f4e6f207265776172647320617661696c61626c650000000000000000000000006044820152fd5b6107aa90339061180b565b926105de565b82843461032f578060031936011261032f57506001600160a01b0360209254169051908152f35b5050346101935781600319360112610193576020906001600160a01b03600654169051908152f35b50503461019357602060031936011261019357602091816001600160a01b0391826108286117a9565b168152600985522054169051908152f35b50503461019357602060031936011261019357806060926001600160a01b036108606117a9565b1681526007602052209060ff6001835493015482519384528181161515602085015260081c16151590820152f35b5050346101935781600319360112610193576001600160a01b0360209254169051908152f35b9050346102815760208060031936011261075057813592338552600782526108e0818620541515611d47565b338552600782528085205415610ae0576108f86120b2565b3385526007825280852061090e81541515611d47565b600181019060ff825460081c16600014610ad05761092c33876119ce565b945b6001600160a01b03888160055416803b156101935786517f40c10f1900000000000000000000000000000000000000000000000000000000815233858201908152602081018b90529091839183919082908490829060400103925af18015610ac6579088939291610aa9575b5050600254845487517fa9059cbb000000000000000000000000000000000000000000000000000000008152339581019586526020860191909152938492908390036040019183918d91165af18015610a9f5796610a22917fd8138f8a3f377c5259ca548e70e4c2de94f129f5a11036a15b69513cba2b426a9798610a72575b5082546117d5565b80915515610a46575b50338552600b82524281862055519283523392a26001805580f35b7fffffffffffffffffffffffffffffffffffffffffffffffffffffffffffffff00815416905538610a2b565b610a9190873d8911610a98575b610a8981836119ab565b81019061209a565b5038610a1a565b503d610a7f565b84513d8a823e3d90fd5b610ab591929350611965565b610ac2578590893861099a565b8880fd5b87513d84823e3d90fd5b610ada338761180b565b9461092e565b60649350519162461bcd60e51b8352820152601060248201527f4e6f7420616e204c50207374616b6572000000000000000000000000000000006044820152fd5b50503461019357602060031936011261019357806020926001600160a01b03610b486117a9565b168152600b845220549051908152f35b505034610193576020806003193601126102815760a0926001600160a01b03610b7f6117a9565b16808252600783528382209360ff6001865496015460081c169384928493610bcf575b8452600a8152818085205494600b8352205494825196875215159086015284015260608301526080820152f35b600882528285208054610be3575b50610ba2565b610bee91945061219a565b90549060031b1c9238610bdd565b833461032f578060031936011261032f57610c15611ddd565b60006001600160a01b03815473ffffffffffffffffffffffffffffffffffffffff1981168355167f8be0079c531659141344cd1fd0a4f28419497f9722a3daafe3b4186f6b6457e08280a380f35b905034610281576020806003193601126107505781359182151590610c8782611cfc565b6001600160a01b0360248482600254168851928380927f70a0823100000000000000000000000000000000000000000000000000000000825233888301525afa908115610e96578891610e64575b5015610e225784610d57928592610cea6120b2565b338a5260078452610cfd898b2096611cfc565b60025416908989518096819582947f23b872dd0000000000000000000000000000000000000000000000000000000084523090339085016040919493929460608201956001600160a01b0380921683521660208201520152565b03925af18015610e1857916001917f0eef359a62dee7c1b6ac3e65bd832c9f9189bbdac34c67f5acfecf6efa65adfb959693610dfb575b50610d9a868254611e35565b8155338752600a845242838820550160ff81541615610dc3575b50519283523392a26001805580f35b600b8352858281205560017fffffffffffffffffffffffffffffffffffffffffffffffffffffffffffffff0082541617905538610db4565b610e1190853d8711610a9857610a8981836119ab565b5038610d8e565b85513d88823e3d90fd5b6064828588519162461bcd60e51b8352820152600f60248201527f4e6f7420616e204c50206f776e657200000000000000000000000000000000006044820152fd5b90508481813d8311610e8f575b610e7b81836119ab565b81010312610e8a575138610cd5565b600080fd5b503d610e71565b87513d8a823e3d90fd5b82843461032f578160031936011261032f5750610383602092610ec16117bf565b90356119ce565b5050346101935781600319360112610193576020906001600160a01b036006541615159051908152f35b919050346102815760209081600319360112610750578235913385526007815260ff6001838720015460081c166112e3576001600160a01b039384600354168351908184817f6352211e0000000000000000000000000000000000000000000000000000000093848252898783015260249586915afa9081156111c75789916112c6575b5087163314801561127a575b1561123957610f8f6120b2565b3388526007845260ff6001868a20015460081c166111f857908792918760035416918651828152888582015286818381875afa9081156111ee5786916111d1575b50891633036110f7575050955b338352600984528483209616958673ffffffffffffffffffffffffffffffffffffffff19825416179055853b156101935783517f23b872dd0000000000000000000000000000000000000000000000000000000081523391810191825230602083015260408201869052908290829081906060010381838a5af18015610754576110df575b50507fc29bc135ffe110129d516137e39a459f0cb3e85b913c072c88f6f3d2254e824b9133865260088252611099848288206122d0565b50338652600782526001818720016101007fffffffffffffffffffffffffffffffffffffffffffffffffffffffffffff00ff825416179055519283523392a36001805580f35b6110e890611965565b6110f3578438611062565b8480fd5b915091925086835416918551908152868482015284818381865afa9081156111c757899161119a575b5087163303611133575090869195610fdd565b602d915060849385519362461bcd60e51b85528401528201527f4e465420646f6573206e6f742062656c6f6e6720746f206120737570706f727460448201527f656420636f6c6c656374696f6e000000000000000000000000000000000000006064820152fd5b6111ba9150853d87116111c0575b6111b281836119ab565b810190611ec0565b38611120565b503d6111a8565b86513d8b823e3d90fd5b6111e89150873d89116111c0576111b281836119ab565b38610fd0565b88513d88823e3d90fd5b50601a9192606494519362461bcd60e51b85528401528201527f416c7265616479207374616b6564207769746820616e204e46540000000000006044820152fd5b50601c9192606494519362461bcd60e51b85528401528201527f43616e206f6e6c79207374616b65204e46547320796f75206f776e21000000006044820152fd5b508184888554168751928380928682528b898301525afa9081156111c75789916112a9575b5087163314610f82565b6112c09150853d87116111c0576111b281836119ab565b3861129f565b6112dd9150853d87116111c0576111b281836119ab565b38610f76565b8390606492519162461bcd60e51b8352820152601560248201527f416c7265616479207374616b656420616e204e465400000000000000000000006044820152fd5b505034610193576020908160031936011261028157916060926113466117a9565b6001600160a01b038091168352600984528183205416926007815260ff6001838520015460081c166000199381806113af575b61138f575b508251948552151590840152820152f35b6113a19194508390600884522061219a565b90549060031b1c923861137e565b5060088352838120541515611379565b833461032f57602060031936011261032f576001600160a01b036113e16117a9565b6113e9611ddd565b1673ffffffffffffffffffffffffffffffffffffffff19600654161760065580f35b50503461019357602060031936011261019357806020926001600160a01b036114326117a9565b168152600a845220549051908152f35b5050346101935781600319360112610193576020906001600160a01b03600254169051908152f35b5050346101935781600319360112610193576020906001600160a01b03600354169051908152f35b8383346101935760208060031936011261028157833593338452600782526114c560ff6001858720015460081c1661191a565b338452600882526114e88584862060019160005201602052604060002054151590565b15611683576114f56120b2565b3384526007825261151160ff6001858720015460081c1661191a565b338452600982526001600160a01b03908184862054169180600354168314908115611676575b501561163457813b156110f35783517f23b872dd000000000000000000000000000000000000000000000000000000008152309181019182523360208301526040820187905291859183919082908490829060600103925af180156116275761160c575b506007906115b560019495338752600883528487206121dd565b503385526009815282852073ffffffffffffffffffffffffffffffffffffffff198154169055528220017fffffffffffffffffffffffffffffffffffffffffffffffffffffffffffff00ff81541690556001805580f35b906115b560019461161e600794611965565b9450509061159b565b50505051903d90823e3d90fd5b6064908385519162461bcd60e51b8352820152601660248201527f496e76616c6964204e465420636f6c6c656374696f6e000000000000000000006044820152fd5b9050815416821487611537565b90608492519162461bcd60e51b8352820152602a60248201527f43616e206f6e6c7920756e7374616b65204e465473206c6f636b656420696e2060448201527f796f757220706f6f6c21000000000000000000000000000000000000000000006064820152fd5b82843461032f578160031936011261032f575061038360209261170b6117bf565b903561180b565b833461032f57602060031936011261032f576001600160a01b036117346117a9565b61173c611ddd565b1673ffffffffffffffffffffffffffffffffffffffff19600354161760035580f35b839034610193576020600319360112610193576001600160a01b036117816117a9565b611789611ddd565b1673ffffffffffffffffffffffffffffffffffffffff1982541617905580f35b600435906001600160a01b0382168203610e8a57565b602435906001600160a01b0382168203610e8a57565b919082039182116117e257565b634e487b7160e01b600052601160045260246000fd5b818102929181159184041417156117e257565b906001600160a01b03166000818152600a60205261182d6040822054426117d5565b9162015180808410156119115782935b818502908582048314861517156118fd5790611858916117d5565b91808452600b6020526040842054156118ef578352600b60205261188a6040842054600a6020526040852054906117d5565b818110156118e657835b8285029285840414851517156118d257506118cf9594926118bc6118c995936118c3936117d5565b9386611e42565b93611e42565b906117d5565b90565b80634e487b7160e01b602492526011600452fd5b81810493611894565b50509190506118cf92611e42565b602485634e487b7160e01b81526011600452fd5b8084049361183d565b1561192157565b606460405162461bcd60e51b815260206004820152600d60248201527f4e6f207374616b6564204e4654000000000000000000000000000000000000006044820152fd5b67ffffffffffffffff811161197957604052565b634e487b7160e01b600052604160045260246000fd5b6040810190811067ffffffffffffffff82111761197957604052565b90601f601f19910116810190811067ffffffffffffffff82111761197957604052565b906001600160a01b038091169060008281526020926007845260409081832094600a81526119ff83852054426117d5565b92620151809283851015611cf35785965b848802888104861489151715611cdf57611a2d611a6791886117d5565b968451611a398161198f565b600d81527f456c61707365642054696d653a0000000000000000000000000000000000000087820152611f1f565b611aa4888451611a768161198f565b600d81527f456c617073656420446179733a0000000000000000000000000000000000000087820152611f1f565b611ae1868451611ab38161198f565b601181527f4c6566746f766572205365636f6e64733a00000000000000000000000000000087820152611f1f565b60ff6001889a015460081c16611b78575b50808652600b83528186205415611b68578552600b825280852054600a909252842054611b1e916117d5565b81811015611b5f57835b8285029285840414851517156118d25750856118c99593611b526118cf99989694611b59946117d5565b9488611ff7565b94611ff7565b81810493611b28565b505050509190506118cf93611ff7565b975080865260088352611b8c82872061219a565b90549060031b1c97818752600984528083882054169060065416848a60448651809481937fe345d96100000000000000000000000000000000000000000000000000000000835260048301528660248301525afa908115610a9f578891611cac575b50611c6d611ca692611c34839c8751611c068161198f565b600e81527f5374616b6564204e46542049443a0000000000000000000000000000000000008a820152611f1f565b8551611c3f8161198f565b601781527f4e465420436f6c6c656374696f6e20416464726573733a00000000000000000088820152611f90565b8351611c788161198f565b601181527f426f6f73742050657263656e746167653a00000000000000000000000000000086820152611f1f565b38611af2565b90508481813d8311611cd8575b611cc381836119ab565b81010312611cd45751611c6d611bee565b8780fd5b503d611cb9565b602488634e487b7160e01b81526011600452fd5b83850496611a10565b15611d0357565b606460405162461bcd60e51b815260206004820152600e60248201527f43616e6e6f74207374616b6520300000000000000000000000000000000000006044820152fd5b15611d4e57565b606460405162461bcd60e51b815260206004820152601360248201527f4e6f207374616b6564204c5020746f6b656e73000000000000000000000000006044820152fd5b15611d9957565b606460405162461bcd60e51b815260206004820152601660248201527f416464726573732063616e6e6f74206265207a65726f000000000000000000006044820152fd5b6001600160a01b03600054163303611df157565b606460405162461bcd60e51b815260206004820152602060248201527f4f776e61626c653a2063616c6c6572206973206e6f7420746865206f776e65726044820152fd5b919082018092116117e257565b919060009181611e98575b80611e5a575b5050905090565b600182018092116117e25764141dd76000611e84611e9095611e7e611e8a9561215c565b906117f8565b046117f8565b90611e35565b803880611e53565b9150620f4240611eb982611eb4611eae8261215c565b876117f8565b6117f8565b0491611e4d565b90816020910312610e8a57516001600160a01b0381168103610e8a5790565b919082519283825260005b848110611f0b575050601f19601f8460006020809697860101520116010190565b602081830181015184830182015201611eea565b600091908291611f7d6040518092611f6960208301957fb60e72cc000000000000000000000000000000000000000000000000000000008752604060248501526064840190611edf565b90604483015203601f1981018352826119ab565b51906a636f6e736f6c652e6c6f675afa50565b600091908291611f7d60405180926001600160a01b03611fe260208401967f319af333000000000000000000000000000000000000000000000000000000008852604060248601526064850190611edf565b9116604483015203601f1981018352826119ab565b906120029291611e42565b90612042826040516120138161198f565b601a81527f546f74616c20726577617264206265666f726520626f6f73743a0000000000006020820152611f1f565b60640190816064116117e25760649161205a916117f8565b046118cf8160405161206b8161198f565b600f81527f426f6f73746564207265776172643a00000000000000000000000000000000006020820152611f1f565b90816020910312610e8a57518015158103610e8a5790565b6002600154146120c3576002600155565b606460405162461bcd60e51b815260206004820152601f60248201527f5265656e7472616e637947756172643a207265656e7472616e742063616c6c006044820152fd5b60008091604051611f7d8161214e60208201947f41304fac000000000000000000000000000000000000000000000000000000008652602060248401526044830190611edf565b03601f1981018352826119ab565b60648111612192575b60001981019081116117e257604b810290808204604b14901517156117e257603201806032116117e25790565b506064612165565b8054156121af57600052602060002090600090565b634e487b7160e01b600052603260045260246000fd5b80548210156121af5760005260206000200190600090565b906001820190600092818452826020526040842054908115156000146122c957600019918281018181116122b557825490848201918211611cdf57808203612269575b505050805480156122555782019161223883836121c5565b909182549160031b1b191690555582526020526040812055600190565b602486634e487b7160e01b81526031600452fd5b6122a061227961228993866121c5565b90549060031b1c928392866121c5565b81939154906000199060031b92831b921b19161790565b90558652846020526040862055388080612220565b602487634e487b7160e01b81526011600452fd5b5050505090565b60008281526001820160205260409020546123255780549068010000000000000000821015611979578261230e6122898460018096018555846121c5565b905580549260005201602052604060002055600190565b505060009056fea26469706673582212209b25b02578e02b350a1a30b503d9d8be30bd286760d67f799aeff16ae9c3e23464736f6c63430008170033",
  "devdoc": {
    "kind": "dev",
    "methods": {
      "owner()": {
        "details": "Returns the address of the current owner."
      },
      "renounceOwnership()": {
        "details": "Leaves the contract without owner. It will not be possible to call `onlyOwner` functions. Can only be called by the current owner. NOTE: Renouncing ownership will leave the contract without an owner, thereby disabling any functionality that is only available to the owner."
      },
      "transferOwnership(address)": {
        "details": "Transfers ownership of the contract to a new account (`newOwner`). Can only be called by the current owner."
      }
    },
    "version": 1
  },
  "userdoc": {
    "kind": "user",
    "methods": {},
    "version": 1
  },
  "storageLayout": {
    "storage": [
      {
        "astId": 7,
        "contract": "contracts/PrimordialLPStaking.sol:PrimordialLPStaking",
        "label": "_owner",
        "offset": 0,
        "slot": "0",
        "type": "t_address"
      },
      {
        "astId": 123,
        "contract": "contracts/PrimordialLPStaking.sol:PrimordialLPStaking",
        "label": "_status",
        "offset": 0,
        "slot": "1",
        "type": "t_uint256"
      },
      {
        "astId": 3427,
        "contract": "contracts/PrimordialLPStaking.sol:PrimordialLPStaking",
        "label": "primordialLPToken",
        "offset": 0,
        "slot": "2",
        "type": "t_contract(IERC20)255"
      },
      {
        "astId": 3429,
        "contract": "contracts/PrimordialLPStaking.sol:PrimordialLPStaking",
        "label": "primordialplanetsAddress",
        "offset": 0,
        "slot": "3",
        "type": "t_address"
      },
      {
        "astId": 3431,
        "contract": "contracts/PrimordialLPStaking.sol:PrimordialLPStaking",
        "label": "cosmicimpactsAddress",
        "offset": 0,
        "slot": "4",
        "type": "t_address"
      },
      {
        "astId": 3434,
        "contract": "contracts/PrimordialLPStaking.sol:PrimordialLPStaking",
        "label": "primordialPePeToken",
        "offset": 0,
        "slot": "5",
        "type": "t_contract(IPrimordialPePe)5171"
      },
      {
        "astId": 3437,
        "contract": "contracts/PrimordialLPStaking.sol:PrimordialLPStaking",
        "label": "boostedRewardCalculator",
        "offset": 0,
        "slot": "6",
        "type": "t_contract(BoostedRewardCalculator)5151"
      },
      {
        "astId": 3449,
        "contract": "contracts/PrimordialLPStaking.sol:PrimordialLPStaking",
        "label": "stakers",
        "offset": 0,
        "slot": "7",
        "type": "t_mapping(t_address,t_struct(StakerInfo)3444_storage)"
      },
      {
        "astId": 3458,
        "contract": "contracts/PrimordialLPStaking.sol:PrimordialLPStaking",
        "label": "stakedNFTs",
        "offset": 0,
        "slot": "8",
        "type": "t_mapping(t_address,t_struct(UintSet)1793_storage)"
      },
      {
        "astId": 3462,
        "contract": "contracts/PrimordialLPStaking.sol:PrimordialLPStaking",
        "label": "nftAddress",
        "offset": 0,
        "slot": "9",
        "type": "t_mapping(t_address,t_address)"
      },
      {
        "astId": 3466,
        "contract": "contracts/PrimordialLPStaking.sol:PrimordialLPStaking",
        "label": "lpStakeTimes",
        "offset": 0,
        "slot": "10",
        "type": "t_mapping(t_address,t_uint256)"
      },
      {
        "astId": 3470,
        "contract": "contracts/PrimordialLPStaking.sol:PrimordialLPStaking",
        "label": "lpClaimTimes",
        "offset": 0,
        "slot": "11",
        "type": "t_mapping(t_address,t_uint256)"
      }
    ],
    "types": {
      "t_address": {
        "encoding": "inplace",
        "label": "address",
        "numberOfBytes": "20"
      },
      "t_array(t_bytes32)dyn_storage": {
        "base": "t_bytes32",
        "encoding": "dynamic_array",
        "label": "bytes32[]",
        "numberOfBytes": "32"
      },
      "t_bool": {
        "encoding": "inplace",
        "label": "bool",
        "numberOfBytes": "1"
      },
      "t_bytes32": {
        "encoding": "inplace",
        "label": "bytes32",
        "numberOfBytes": "32"
      },
      "t_contract(BoostedRewardCalculator)5151": {
        "encoding": "inplace",
        "label": "contract BoostedRewardCalculator",
        "numberOfBytes": "20"
      },
      "t_contract(IERC20)255": {
        "encoding": "inplace",
        "label": "contract IERC20",
        "numberOfBytes": "20"
      },
      "t_contract(IPrimordialPePe)5171": {
        "encoding": "inplace",
        "label": "contract IPrimordialPePe",
        "numberOfBytes": "20"
      },
      "t_mapping(t_address,t_address)": {
        "encoding": "mapping",
        "key": "t_address",
        "label": "mapping(address => address)",
        "numberOfBytes": "32",
        "value": "t_address"
      },
      "t_mapping(t_address,t_struct(StakerInfo)3444_storage)": {
        "encoding": "mapping",
        "key": "t_address",
        "label": "mapping(address => struct PrimordialLPStaking.StakerInfo)",
        "numberOfBytes": "32",
        "value": "t_struct(StakerInfo)3444_storage"
      },
      "t_mapping(t_address,t_struct(UintSet)1793_storage)": {
        "encoding": "mapping",
        "key": "t_address",
        "label": "mapping(address => struct EnumerableSet.UintSet)",
        "numberOfBytes": "32",
        "value": "t_struct(UintSet)1793_storage"
      },
      "t_mapping(t_address,t_uint256)": {
        "encoding": "mapping",
        "key": "t_address",
        "label": "mapping(address => uint256)",
        "numberOfBytes": "32",
        "value": "t_uint256"
      },
      "t_mapping(t_bytes32,t_uint256)": {
        "encoding": "mapping",
        "key": "t_bytes32",
        "label": "mapping(bytes32 => uint256)",
        "numberOfBytes": "32",
        "value": "t_uint256"
      },
      "t_struct(Set)1321_storage": {
        "encoding": "inplace",
        "label": "struct EnumerableSet.Set",
        "members": [
          {
            "astId": 1316,
            "contract": "contracts/PrimordialLPStaking.sol:PrimordialLPStaking",
            "label": "_values",
            "offset": 0,
            "slot": "0",
            "type": "t_array(t_bytes32)dyn_storage"
          },
          {
            "astId": 1320,
            "contract": "contracts/PrimordialLPStaking.sol:PrimordialLPStaking",
            "label": "_indexes",
            "offset": 0,
            "slot": "1",
            "type": "t_mapping(t_bytes32,t_uint256)"
          }
        ],
        "numberOfBytes": "64"
      },
      "t_struct(StakerInfo)3444_storage": {
        "encoding": "inplace",
        "label": "struct PrimordialLPStaking.StakerInfo",
        "members": [
          {
            "astId": 3439,
            "contract": "contracts/PrimordialLPStaking.sol:PrimordialLPStaking",
            "label": "stakedAmount",
            "offset": 0,
            "slot": "0",
            "type": "t_uint256"
          },
          {
            "astId": 3441,
            "contract": "contracts/PrimordialLPStaking.sol:PrimordialLPStaking",
            "label": "lpStaked",
            "offset": 0,
            "slot": "1",
            "type": "t_bool"
          },
          {
            "astId": 3443,
            "contract": "contracts/PrimordialLPStaking.sol:PrimordialLPStaking",
            "label": "nftStaked",
            "offset": 1,
            "slot": "1",
            "type": "t_bool"
          }
        ],
        "numberOfBytes": "64"
      },
      "t_struct(UintSet)1793_storage": {
        "encoding": "inplace",
        "label": "struct EnumerableSet.UintSet",
        "members": [
          {
            "astId": 1792,
            "contract": "contracts/PrimordialLPStaking.sol:PrimordialLPStaking",
            "label": "_inner",
            "offset": 0,
            "slot": "0",
            "type": "t_struct(Set)1321_storage"
          }
        ],
        "numberOfBytes": "64"
      },
      "t_uint256": {
        "encoding": "inplace",
        "label": "uint256",
        "numberOfBytes": "32"
      }
    }
  }
}