{
  "address": "0x9A9f2CCfdE556A7E9Ff0848998Aa4a0CFD8863AE",
  "abi": [
    {
      "inputs": [
        {
          "internalType": "address",
          "name": "_vestingToken",
          "type": "address"
        },
        {
          "internalType": "address",
          "name": "_primordialPePeToken",
          "type": "address"
        }
      ],
      "stateMutability": "nonpayable",
      "type": "constructor"
    },
    {
      "anonymous": false,
      "inputs": [
        {
          "indexed": true,
          "internalType": "address",
          "name": "previousOwner",
          "type": "address"
        },
        {
          "indexed": true,
          "internalType": "address",
          "name": "newOwner",
          "type": "address"
        }
      ],
      "name": "OwnershipTransferred",
      "type": "event"
    },
    {
      "inputs": [
        {
          "internalType": "uint256",
          "name": "_vestIndex",
          "type": "uint256"
        }
      ],
      "name": "claimRewards",
      "outputs": [],
      "stateMutability": "nonpayable",
      "type": "function"
    },
    {
      "inputs": [
        {
          "internalType": "uint256",
          "name": "_vestIndex",
          "type": "uint256"
        }
      ],
      "name": "emergencyWithdraw",
      "outputs": [],
      "stateMutability": "nonpayable",
      "type": "function"
    },
    {
      "inputs": [
        {
          "internalType": "uint256",
          "name": "duration",
          "type": "uint256"
        }
      ],
      "name": "findTimeBracketIndex",
      "outputs": [
        {
          "internalType": "uint256",
          "name": "",
          "type": "uint256"
        }
      ],
      "stateMutability": "view",
      "type": "function"
    },
    {
      "inputs": [
        {
          "internalType": "address",
          "name": "user",
          "type": "address"
        }
      ],
      "name": "getAllSlots",
      "outputs": [
        {
          "internalType": "bool[25]",
          "name": "",
          "type": "bool[25]"
        },
        {
          "components": [
            {
              "internalType": "uint256",
              "name": "amount",
              "type": "uint256"
            },
            {
              "internalType": "uint256",
              "name": "startTime",
              "type": "uint256"
            },
            {
              "internalType": "uint256",
              "name": "endTime",
              "type": "uint256"
            },
            {
              "internalType": "uint256",
              "name": "apr",
              "type": "uint256"
            },
            {
              "internalType": "bool",
              "name": "active",
              "type": "bool"
            }
          ],
          "internalType": "struct Vesting.Vest[]",
          "name": "",
          "type": "tuple[]"
        }
      ],
      "stateMutability": "view",
      "type": "function"
    },
    {
      "inputs": [
        {
          "internalType": "address",
          "name": "user",
          "type": "address"
        }
      ],
      "name": "getAllVests",
      "outputs": [
        {
          "components": [
            {
              "internalType": "uint256",
              "name": "amount",
              "type": "uint256"
            },
            {
              "internalType": "uint256",
              "name": "startTime",
              "type": "uint256"
            },
            {
              "internalType": "uint256",
              "name": "endTime",
              "type": "uint256"
            },
            {
              "internalType": "uint256",
              "name": "apr",
              "type": "uint256"
            },
            {
              "internalType": "bool",
              "name": "active",
              "type": "bool"
            }
          ],
          "internalType": "struct Vesting.Vest[]",
          "name": "",
          "type": "tuple[]"
        }
      ],
      "stateMutability": "view",
      "type": "function"
    },
    {
      "inputs": [
        {
          "internalType": "address",
          "name": "user",
          "type": "address"
        },
        {
          "internalType": "uint256",
          "name": "index",
          "type": "uint256"
        }
      ],
      "name": "getVest",
      "outputs": [
        {
          "components": [
            {
              "internalType": "uint256",
              "name": "amount",
              "type": "uint256"
            },
            {
              "internalType": "uint256",
              "name": "startTime",
              "type": "uint256"
            },
            {
              "internalType": "uint256",
              "name": "endTime",
              "type": "uint256"
            },
            {
              "internalType": "uint256",
              "name": "apr",
              "type": "uint256"
            },
            {
              "internalType": "bool",
              "name": "active",
              "type": "bool"
            }
          ],
          "internalType": "struct Vesting.Vest",
          "name": "",
          "type": "tuple"
        }
      ],
      "stateMutability": "view",
      "type": "function"
    },
    {
      "inputs": [
        {
          "internalType": "address",
          "name": "user",
          "type": "address"
        }
      ],
      "name": "getVestCount",
      "outputs": [
        {
          "internalType": "uint256",
          "name": "",
          "type": "uint256"
        }
      ],
      "stateMutability": "view",
      "type": "function"
    },
    {
      "inputs": [],
      "name": "mintablePrimordialPePeToken",
      "outputs": [
        {
          "internalType": "contract IPrimordialPePe",
          "name": "",
          "type": "address"
        }
      ],
      "stateMutability": "view",
      "type": "function"
    },
    {
      "inputs": [],
      "name": "owner",
      "outputs": [
        {
          "internalType": "address",
          "name": "",
          "type": "address"
        }
      ],
      "stateMutability": "view",
      "type": "function"
    },
    {
      "inputs": [],
      "name": "renounceOwnership",
      "outputs": [],
      "stateMutability": "nonpayable",
      "type": "function"
    },
    {
      "inputs": [
        {
          "internalType": "address",
          "name": "_primordialPePeToken",
          "type": "address"
        }
      ],
      "name": "setPrimordialPePeToken",
      "outputs": [],
      "stateMutability": "nonpayable",
      "type": "function"
    },
    {
      "inputs": [
        {
          "internalType": "address",
          "name": "_vestingToken",
          "type": "address"
        }
      ],
      "name": "setVestingToken",
      "outputs": [],
      "stateMutability": "nonpayable",
      "type": "function"
    },
    {
      "inputs": [
        {
          "internalType": "uint256",
          "name": "",
          "type": "uint256"
        }
      ],
      "name": "timeBrackets",
      "outputs": [
        {
          "internalType": "uint256",
          "name": "",
          "type": "uint256"
        }
      ],
      "stateMutability": "view",
      "type": "function"
    },
    {
      "inputs": [
        {
          "internalType": "address",
          "name": "newOwner",
          "type": "address"
        }
      ],
      "name": "transferOwnership",
      "outputs": [],
      "stateMutability": "nonpayable",
      "type": "function"
    },
    {
      "inputs": [
        {
          "internalType": "address",
          "name": "",
          "type": "address"
        },
        {
          "internalType": "uint256",
          "name": "",
          "type": "uint256"
        }
      ],
      "name": "userVests",
      "outputs": [
        {
          "internalType": "uint256",
          "name": "amount",
          "type": "uint256"
        },
        {
          "internalType": "uint256",
          "name": "startTime",
          "type": "uint256"
        },
        {
          "internalType": "uint256",
          "name": "endTime",
          "type": "uint256"
        },
        {
          "internalType": "uint256",
          "name": "apr",
          "type": "uint256"
        },
        {
          "internalType": "bool",
          "name": "active",
          "type": "bool"
        }
      ],
      "stateMutability": "view",
      "type": "function"
    },
    {
      "inputs": [
        {
          "internalType": "address",
          "name": "",
          "type": "address"
        }
      ],
      "name": "vestCount",
      "outputs": [
        {
          "internalType": "uint256",
          "name": "",
          "type": "uint256"
        }
      ],
      "stateMutability": "view",
      "type": "function"
    },
    {
      "inputs": [
        {
          "internalType": "uint256",
          "name": "_amount",
          "type": "uint256"
        },
        {
          "internalType": "uint256",
          "name": "_timeIndex",
          "type": "uint256"
        }
      ],
      "name": "vestTokens",
      "outputs": [],
      "stateMutability": "nonpayable",
      "type": "function"
    },
    {
      "inputs": [],
      "name": "vestingToken",
      "outputs": [
        {
          "internalType": "contract IERC20",
          "name": "",
          "type": "address"
        }
      ],
      "stateMutability": "view",
      "type": "function"
    }
  ],
  "transactionHash": "0x18cef145afd41a57e080430e0db871992bec3fef400567103db00683bd8d6f3d",
  "args": [
    "0x2cD6B2b4f4D9fA59f8E9638c00F5902fD1d9afbc",
    "0x2cD6B2b4f4D9fA59f8E9638c00F5902fD1d9afbc"
  ],
  "numDeployments": 1,
  "solcInputHash": "4a74aca84fd554375f57d678295d416a",
  "bytecode": "0x6080346200021d5762001881906001600160401b03601f38849003908101601f1916830190828211848310176200022257808491604096879485528339810103126200021d57620000508262000238565b6200005f602080940162000238565b60008054336001600160a01b031980831682178455966001600160a01b039694959493909290919087167f8be0079c531659141344cd1fd0a4f28419497f9722a3daafe3b4186f6b6457e08380a38751926101808401908111848210176200020957885262278d008352624f1a0060208401526276a70088840152629e3400606084015262c5c100608084015262ed4e0060a0840152630114db0060c084015263013c680060e0840152630163f50061010084015263018b82006101208401526301b30f006101408401526301e1338061016084015260035492600c93600c60035580600c10620001a6575b5090869493926003825260208220915b8481106200018a57505050505016836001541617600155169060025416176002555161163390816200024e8239f35b835163ffffffff1681840155889650928101926001016200015b565b600383527fc2575a0e9e593c00f959f8c92f12db2869c3395a3b0502d05e2516446f71f85b017fc2575a0e9e593c00f959f8c92f12db2869c3395a3b0502d05e2516446f71f8675b818110620001fd57506200014b565b838155600101620001ee565b634e487b7160e01b82526041600452602482fd5b600080fd5b634e487b7160e01b600052604160045260246000fd5b51906001600160a01b03821682036200021d5756fe6040608081526004908136101561001557600080fd5b6000803560e01c80630962ef7914610ce057806319d152fa14610cab5780631dbc04ae14610c4757806348f5eaf914610bca57806351706aa114610b915780635312ea8e14610ae95780635a4665c314610a85578063659446fc14610978578063715018a6146108f957806379d4de18146106975780638da5cb5b14610664578063a2f4a3ff1461062f578063a73214ed14610336578063af8033c31461025c578063e842698b14610214578063f113450214610214578063f2fde38b1461010e5763fdafcec3146100e657600080fd5b3461010b57602060031936011261010b5750610104602092356111d9565b9051908152f35b80fd5b50913461021057602060031936011261021057610129610f25565b906101326112dc565b73ffffffffffffffffffffffffffffffffffffffff8092169283156101a7575050600054827fffffffffffffffffffffffff0000000000000000000000000000000000000000821617600055167f8be0079c531659141344cd1fd0a4f28419497f9722a3daafe3b4186f6b6457e0600080a380f35b906020608492519162461bcd60e51b8352820152602660248201527f4f776e61626c653a206e6577206f776e657220697320746865207a65726f206160448201527f64647265737300000000000000000000000000000000000000000000000000006064820152fd5b8280fd5b509034610258576020600319360112610258578060209273ffffffffffffffffffffffffffffffffffffffff610248610f25565b1681526005845220549051908152f35b5080fd5b509190346102105780600319360112610210578060ff6103349260a095610281610f25565b73ffffffffffffffffffffffffffffffffffffffff602435916102a261119a565b501680835260056020526102ba848420548310611005565b82528660205282822090825260205220938251946102d7866110f7565b80548652600181015460208701526002810154848701526003810154606087015201541615156080840152518092608080918051845260208101516020850152604081015160408501526060810151606085015201511515910152565bf35b509034610258576020928360031936011261021057610353610f25565b73ffffffffffffffffffffffffffffffffffffffff83519161037483611129565b610320809336903716928385526006865280852095815196549160ff9586841615158952868460081c161515838a0152868460101c161515828a0152606093878160181c16151560608b0152876080918181871c16151560808d0152818160281c16151560a08d0152818160301c16151560c08d0152818160381c16151560e08d01528181861c1615156101008d0152818160481c1615156101208d0152818160501c1615156101408d0152818160581c1615156101608d0152818160601c1615156101808d0152818160681c1615156101a08d0152818160701c1615156101c08d0152818160781c1615156101e08d0152818160801c1615156102008d0152818160881c1615156102208d0152818160901c1615156102408d0152818160981c1615156102608d0152818160a01c1615156102808d0152818160a81c1615156102a08d0152818160b01c1615156102c08d0152818160b81c1615156102e08d015260c01c1615156103008b01526104eb8a611129565b82519761034097888a018a811067ffffffffffffffff82111761061a57859c9b9c5260199660198b5260005b8981106105fd57508c5b88811061056b575050505050505195869097905b8382106105545787806105508989808a850152830190610f9a565b0390f35b82806001928b511515815201990191019097610535565b808e8e9f9e928e8b88888d8d6001998760051b015115610597575b5050505050505050019c9b9c610521565b8782916105ef9952838652818120888252865220908051946105b8866110f7565b825486528a8301549086015260028201549085015260038101548a85015201541615158a8201526105e983836111c5565b526111c5565b508d818e8b88888d8d610586565b808c9d9e9d89809361060d61119a565b92010152019c9b9c610517565b604182634e487b7160e01b6000525260246000fd5b50903461025857816003193601126102585760209073ffffffffffffffffffffffffffffffffffffffff600254169051908152f35b50903461025857816003193601126102585773ffffffffffffffffffffffffffffffffffffffff60209254169051908152f35b5091903461021057806003193601126102105781359060249081353386526020906005825260198388205410156108b857600354811015610877576106db33611341565b9461074373ffffffffffffffffffffffffffffffffffffffff600154168551907f23b872dd000000000000000000000000000000000000000000000000000000008683015233888301523060448301528360648301526064825261073e826110f7565b6113bc565b8160020191826002116108655761075990610f4d565b90549060031b1c420191824211610851576005939291889186519161077d836110f7565b82528482019342855287830190815260608301918252608083019460018652338d528487528c8b8a822091528752888d2093518455516001840155516002830155516003820155019051151560ff60ff198354169116179055338752600681526107e985848920611169565b60ff82549160031b1b1916905533875252842092835480931461080a578480f35b7fffffffffffffffffffffffffffffffffffffffffffffffffffffffffffffffff83146108405750506001019055388080808480f35b60118591634e487b7160e01b835252fd5b85601189634e487b7160e01b600052526000fd5b858960118a634e487b7160e01b835252fd5b6064866014868587519362461bcd60e51b85528401528201527f496e76616c69642074696d6520627261636b65740000000000000000000000006044820152fd5b606486601d868587519362461bcd60e51b85528401528201527f4d61782076657374696e6720706f736974696f6e7320726561636865640000006044820152fd5b503461010b578060031936011261010b576109126112dc565b600073ffffffffffffffffffffffffffffffffffffffff81547fffffffffffffffffffffffff000000000000000000000000000000000000000081168355167f8be0079c531659141344cd1fd0a4f28419497f9722a3daafe3b4186f6b6457e08280a380f35b509034610258576020918260031936011261010b5773ffffffffffffffffffffffffffffffffffffffff6109aa610f25565b16938482526005845282822054916109c183611182565b956109ce85519788611146565b838752601f196109dd85611182565b018660005b828110610a6f57505050815b848110610a0757855187815280610550818a018b610f9a565b600190828452848852868420818552885286842060ff86895192610a2a846110f7565b80548452858101548c85015260028101548b8501526003810154606085015201541615156080820152610a5d828b6111c5565b52610a68818a6111c5565b50016109ee565b610a7761119a565b82828c0101520187906109e2565b503461010b57602060031936011261010b5773ffffffffffffffffffffffffffffffffffffffff610ab4610f25565b610abc6112dc565b167fffffffffffffffffffffffff0000000000000000000000000000000000000000600254161760025580f35b50913461021057602060031936011261021057610b7a918135913385526005602052610b19828620548410611005565b33855280602052818520838652602052610b6382862091820191610b4060ff845416611050565b73ffffffffffffffffffffffffffffffffffffffff600154169054903390611278565b60ff19815416905533845260066020528320611169565b81549060031b9060ff6001831b921b191617905580f35b50913461021057602060031936011261021057359160035483101561010b5750610bbc602092610f4d565b90549060031b1c9051908152f35b509190346102105780600319360112610210578060a09373ffffffffffffffffffffffffffffffffffffffff610bfe610f25565b1681528360205281812060243582526020522080549260018201549260ff6002840154926003850154940154169381519586526020860152840152606083015215156080820152f35b503461010b57602060031936011261010b5773ffffffffffffffffffffffffffffffffffffffff610c76610f25565b610c7e6112dc565b167fffffffffffffffffffffffff0000000000000000000000000000000000000000600154161760015580f35b50903461025857816003193601126102585760209073ffffffffffffffffffffffffffffffffffffffff600154169051908152f35b50903461025857602090816003193601126102105783359133845260058152610d0d828520548410611005565b338452848152818420838552815281842085810190610d2f60ff835416611050565b6002810154804210610ee457600182015490610d53610d4e83836110c1565b6111d9565b6003541115610ea257600383015491670de0b6b3a76400009182840293808504841490151715610e8f57618e9462015180610d96610da6969594610da0946110c1565b04930485546110e4565b046110e4565b9673ffffffffffffffffffffffffffffffffffffffff97886002541690813b15610e8b5786517f40c10f1900000000000000000000000000000000000000000000000000000000815233848201908152602081019290925291899183919082908490829060400103925af18015610e8157610e4c575b505090610e3960069392610b7a9798600154169054903390611278565b60ff198154169055338652528320611169565b67ffffffffffffffff819998929911610e6e578552959650610e396006610e1c565b60248260418b634e487b7160e01b835252fd5b86513d8a823e3d90fd5b8880fd5b60248a60118d634e487b7160e01b835252fd5b6064898688519162461bcd60e51b8352820152601660248201527f54696d6520627261636b6574206e6f7420666f756e64000000000000000000006044820152fd5b606488858088519262461bcd60e51b845283015260248201527f56657374696e6720706572696f64206e6f742079657420636f6d706c657465646044820152fd5b6004359073ffffffffffffffffffffffffffffffffffffffff82168203610f4857565b600080fd5b600354811015610f845760036000527fc2575a0e9e593c00f959f8c92f12db2869c3395a3b0502d05e2516446f71f85b0190600090565b634e487b7160e01b600052603260045260246000fd5b90815180825260208080930193019160005b828110610fba575050505090565b909192938260a082610ff96001948951608080918051845260208101516020850152604081015160408501526060810151606085015201511515910152565b01950193929101610fac565b1561100c57565b606460405162461bcd60e51b815260206004820152601260248201527f496e76616c6964207665737420696e64657800000000000000000000000000006044820152fd5b1561105757565b608460405162461bcd60e51b815260206004820152602260248201527f56657374206e6f7420616374697665206f7220616c726561647920636c61696d60448201527f65640000000000000000000000000000000000000000000000000000000000006064820152fd5b919082039182116110ce57565b634e487b7160e01b600052601160045260246000fd5b818102929181159184041417156110ce57565b60a0810190811067ffffffffffffffff82111761111357604052565b634e487b7160e01b600052604160045260246000fd5b610320810190811067ffffffffffffffff82111761111357604052565b90601f601f19910116810190811067ffffffffffffffff82111761111357604052565b9190916019831015610f8457601f908360051c01921690565b67ffffffffffffffff81116111135760051b60200190565b604051906111a7826110f7565b60006080838281528260208201528260408201528260608201520152565b8051821015610f845760209160051b010190565b60009060038054925b83811061125357608460405162461bcd60e51b815260206004820152602660248201527f4475726174696f6e20646f6573206e6f742066697420616e792074696d65206260448201527f7261636b657400000000000000000000000000000000000000000000000000006064820152fd5b61125c81610f4d565b905490831b1c831115611271576001016111e2565b9250505090565b6040517fa9059cbb00000000000000000000000000000000000000000000000000000000602082015273ffffffffffffffffffffffffffffffffffffffff9290921660248301526044808301939093529181526112da9161073e606483611146565b565b73ffffffffffffffffffffffffffffffffffffffff6000541633036112fd57565b606460405162461bcd60e51b815260206004820152602060248201527f4f776e61626c653a2063616c6c6572206973206e6f7420746865206f776e65726044820152fd5b60005b60198110611374575073ffffffffffffffffffffffffffffffffffffffff16600052600560205260406000205490565b73ffffffffffffffffffffffffffffffffffffffff8216600052600660205260ff6113a3826040600020611169565b90549060031b1c166113b757600101611344565b905090565b73ffffffffffffffffffffffffffffffffffffffff16906040516040810167ffffffffffffffff9082811082821117611113576040526020938483527f5361666545524332303a206c6f772d6c6576656c2063616c6c206661696c6564858401526000808587829751910182855af1903d15611522573d92831161150e57906114659392916040519261145888601f19601f8401160185611146565b83523d868885013e61152d565b8051918215918483156114ea575b5050509050156114805750565b6084906040519062461bcd60e51b82526004820152602a60248201527f5361666545524332303a204552433230206f7065726174696f6e20646964206e60448201527f6f742073756363656564000000000000000000000000000000000000000000006064820152fd5b9193818094500103126102585782015190811515820361010b575080388084611473565b602485634e487b7160e01b81526041600452fd5b906114659392506060915b9192901561158e5750815115611541575090565b3b1561154a5790565b606460405162461bcd60e51b815260206004820152601d60248201527f416464726573733a2063616c6c20746f206e6f6e2d636f6e74726163740000006044820152fd5b8251909150156115a15750805190602001fd5b6040519062461bcd60e51b825281602080600483015282519283602484015260005b8481106115e657505050601f19601f836000604480968601015201168101030190fd5b8181018301518682016044015285935082016115c356fea264697066735822122091e342cdf1c8a7e382f0ba5372025bfce5f1588e88ed366415d9d5e86770117764736f6c63430008170033",
  "devdoc": {
    "kind": "dev",
    "methods": {
      "owner()": {
        "details": "Returns the address of the current owner."
      },
      "renounceOwnership()": {
        "details": "Leaves the contract without owner. It will not be possible to call `onlyOwner` functions. Can only be called by the current owner. NOTE: Renouncing ownership will leave the contract without an owner, thereby disabling any functionality that is only available to the owner."
      },
      "transferOwnership(address)": {
        "details": "Transfers ownership of the contract to a new account (`newOwner`). Can only be called by the current owner."
      }
    },
    "version": 1
  },
  "userdoc": {
    "kind": "user",
    "methods": {},
    "version": 1
  },
  "storageLayout": {
    "storage": [
      {
        "astId": 7,
        "contract": "contracts/Vesting.sol:Vesting",
        "label": "_owner",
        "offset": 0,
        "slot": "0",
        "type": "t_address"
      },
      {
        "astId": 995,
        "contract": "contracts/Vesting.sol:Vesting",
        "label": "vestingToken",
        "offset": 0,
        "slot": "1",
        "type": "t_contract(IERC20)190"
      },
      {
        "astId": 998,
        "contract": "contracts/Vesting.sol:Vesting",
        "label": "mintablePrimordialPePeToken",
        "offset": 0,
        "slot": "2",
        "type": "t_contract(IPrimordialPePe)975"
      },
      {
        "astId": 1014,
        "contract": "contracts/Vesting.sol:Vesting",
        "label": "timeBrackets",
        "offset": 0,
        "slot": "3",
        "type": "t_array(t_uint256)dyn_storage"
      },
      {
        "astId": 1021,
        "contract": "contracts/Vesting.sol:Vesting",
        "label": "userVests",
        "offset": 0,
        "slot": "4",
        "type": "t_mapping(t_address,t_mapping(t_uint256,t_struct(Vest)992_storage))"
      },
      {
        "astId": 1025,
        "contract": "contracts/Vesting.sol:Vesting",
        "label": "vestCount",
        "offset": 0,
        "slot": "5",
        "type": "t_mapping(t_address,t_uint256)"
      },
      {
        "astId": 1031,
        "contract": "contracts/Vesting.sol:Vesting",
        "label": "availableSlots",
        "offset": 0,
        "slot": "6",
        "type": "t_mapping(t_address,t_array(t_bool)25_storage)"
      }
    ],
    "types": {
      "t_address": {
        "encoding": "inplace",
        "label": "address",
        "numberOfBytes": "20"
      },
      "t_array(t_bool)25_storage": {
        "base": "t_bool",
        "encoding": "inplace",
        "label": "bool[25]",
        "numberOfBytes": "32"
      },
      "t_array(t_uint256)dyn_storage": {
        "base": "t_uint256",
        "encoding": "dynamic_array",
        "label": "uint256[]",
        "numberOfBytes": "32"
      },
      "t_bool": {
        "encoding": "inplace",
        "label": "bool",
        "numberOfBytes": "1"
      },
      "t_contract(IERC20)190": {
        "encoding": "inplace",
        "label": "contract IERC20",
        "numberOfBytes": "20"
      },
      "t_contract(IPrimordialPePe)975": {
        "encoding": "inplace",
        "label": "contract IPrimordialPePe",
        "numberOfBytes": "20"
      },
      "t_mapping(t_address,t_array(t_bool)25_storage)": {
        "encoding": "mapping",
        "key": "t_address",
        "label": "mapping(address => bool[25])",
        "numberOfBytes": "32",
        "value": "t_array(t_bool)25_storage"
      },
      "t_mapping(t_address,t_mapping(t_uint256,t_struct(Vest)992_storage))": {
        "encoding": "mapping",
        "key": "t_address",
        "label": "mapping(address => mapping(uint256 => struct Vesting.Vest))",
        "numberOfBytes": "32",
        "value": "t_mapping(t_uint256,t_struct(Vest)992_storage)"
      },
      "t_mapping(t_address,t_uint256)": {
        "encoding": "mapping",
        "key": "t_address",
        "label": "mapping(address => uint256)",
        "numberOfBytes": "32",
        "value": "t_uint256"
      },
      "t_mapping(t_uint256,t_struct(Vest)992_storage)": {
        "encoding": "mapping",
        "key": "t_uint256",
        "label": "mapping(uint256 => struct Vesting.Vest)",
        "numberOfBytes": "32",
        "value": "t_struct(Vest)992_storage"
      },
      "t_struct(Vest)992_storage": {
        "encoding": "inplace",
        "label": "struct Vesting.Vest",
        "members": [
          {
            "astId": 983,
            "contract": "contracts/Vesting.sol:Vesting",
            "label": "amount",
            "offset": 0,
            "slot": "0",
            "type": "t_uint256"
          },
          {
            "astId": 985,
            "contract": "contracts/Vesting.sol:Vesting",
            "label": "startTime",
            "offset": 0,
            "slot": "1",
            "type": "t_uint256"
          },
          {
            "astId": 987,
            "contract": "contracts/Vesting.sol:Vesting",
            "label": "endTime",
            "offset": 0,
            "slot": "2",
            "type": "t_uint256"
          },
          {
            "astId": 989,
            "contract": "contracts/Vesting.sol:Vesting",
            "label": "apr",
            "offset": 0,
            "slot": "3",
            "type": "t_uint256"
          },
          {
            "astId": 991,
            "contract": "contracts/Vesting.sol:Vesting",
            "label": "active",
            "offset": 0,
            "slot": "4",
            "type": "t_bool"
          }
        ],
        "numberOfBytes": "160"
      },
      "t_uint256": {
        "encoding": "inplace",
        "label": "uint256",
        "numberOfBytes": "32"
      }
    }
  }
}