{
  "address": "0x400AE443814B7A199D8598e6B979182D570241e1",
  "abi": [
    {
      "inputs": [
        {
          "internalType": "address",
          "name": "_lpToken",
          "type": "address"
        },
        {
          "internalType": "address",
          "name": "_rewardTokenAddress",
          "type": "address"
        }
      ],
      "stateMutability": "nonpayable",
      "type": "constructor"
    },
    {
      "anonymous": false,
      "inputs": [
        {
          "indexed": true,
          "internalType": "address",
          "name": "user",
          "type": "address"
        },
        {
          "indexed": false,
          "internalType": "uint256",
          "name": "rewardAmount",
          "type": "uint256"
        }
      ],
      "name": "Claimed",
      "type": "event"
    },
    {
      "anonymous": false,
      "inputs": [
        {
          "indexed": true,
          "internalType": "address",
          "name": "previousOwner",
          "type": "address"
        },
        {
          "indexed": true,
          "internalType": "address",
          "name": "newOwner",
          "type": "address"
        }
      ],
      "name": "OwnershipTransferred",
      "type": "event"
    },
    {
      "anonymous": false,
      "inputs": [
        {
          "indexed": true,
          "internalType": "address",
          "name": "user",
          "type": "address"
        },
        {
          "indexed": false,
          "internalType": "uint256",
          "name": "amount",
          "type": "uint256"
        }
      ],
      "name": "StakeLP",
      "type": "event"
    },
    {
      "inputs": [
        {
          "internalType": "uint256",
          "name": "_stakedAmount",
          "type": "uint256"
        }
      ],
      "name": "claimReward",
      "outputs": [],
      "stateMutability": "nonpayable",
      "type": "function"
    },
    {
      "inputs": [
        {
          "internalType": "uint256",
          "name": "_stakedAmount",
          "type": "uint256"
        },
        {
          "internalType": "address",
          "name": "_staker",
          "type": "address"
        }
      ],
      "name": "getBasePrimordialOwed",
      "outputs": [
        {
          "internalType": "uint256",
          "name": "",
          "type": "uint256"
        }
      ],
      "stateMutability": "view",
      "type": "function"
    },
    {
      "inputs": [
        {
          "internalType": "address",
          "name": "_address",
          "type": "address"
        }
      ],
      "name": "getPrimordialEmission",
      "outputs": [
        {
          "internalType": "uint256",
          "name": "",
          "type": "uint256"
        }
      ],
      "stateMutability": "view",
      "type": "function"
    },
    {
      "inputs": [
        {
          "internalType": "address",
          "name": "_staker",
          "type": "address"
        }
      ],
      "name": "getStakerInfo",
      "outputs": [
        {
          "internalType": "uint256",
          "name": "stakedAmount",
          "type": "uint256"
        },
        {
          "internalType": "uint256",
          "name": "lpStakeTime",
          "type": "uint256"
        },
        {
          "internalType": "uint256",
          "name": "lpClaimTime",
          "type": "uint256"
        }
      ],
      "stateMutability": "view",
      "type": "function"
    },
    {
      "inputs": [
        {
          "internalType": "address",
          "name": "",
          "type": "address"
        }
      ],
      "name": "lpClaimTimes",
      "outputs": [
        {
          "internalType": "uint256",
          "name": "",
          "type": "uint256"
        }
      ],
      "stateMutability": "view",
      "type": "function"
    },
    {
      "inputs": [
        {
          "internalType": "address",
          "name": "",
          "type": "address"
        }
      ],
      "name": "lpStakeTimes",
      "outputs": [
        {
          "internalType": "uint256",
          "name": "",
          "type": "uint256"
        }
      ],
      "stateMutability": "view",
      "type": "function"
    },
    {
      "inputs": [],
      "name": "lpToken",
      "outputs": [
        {
          "internalType": "contract IERC20",
          "name": "",
          "type": "address"
        }
      ],
      "stateMutability": "view",
      "type": "function"
    },
    {
      "inputs": [],
      "name": "owner",
      "outputs": [
        {
          "internalType": "address",
          "name": "",
          "type": "address"
        }
      ],
      "stateMutability": "view",
      "type": "function"
    },
    {
      "inputs": [],
      "name": "renounceOwnership",
      "outputs": [],
      "stateMutability": "nonpayable",
      "type": "function"
    },
    {
      "inputs": [],
      "name": "rewardToken",
      "outputs": [
        {
          "internalType": "contract IERC20",
          "name": "",
          "type": "address"
        }
      ],
      "stateMutability": "view",
      "type": "function"
    },
    {
      "inputs": [
        {
          "internalType": "address",
          "name": "_lpToken",
          "type": "address"
        }
      ],
      "name": "setLPToken",
      "outputs": [],
      "stateMutability": "nonpayable",
      "type": "function"
    },
    {
      "inputs": [
        {
          "internalType": "address",
          "name": "_rewardTokenAddress",
          "type": "address"
        }
      ],
      "name": "setRewardToken",
      "outputs": [],
      "stateMutability": "nonpayable",
      "type": "function"
    },
    {
      "inputs": [
        {
          "internalType": "uint256",
          "name": "amount",
          "type": "uint256"
        }
      ],
      "name": "stakeLPToken",
      "outputs": [],
      "stateMutability": "nonpayable",
      "type": "function"
    },
    {
      "inputs": [
        {
          "internalType": "address",
          "name": "",
          "type": "address"
        }
      ],
      "name": "stakers",
      "outputs": [
        {
          "internalType": "uint256",
          "name": "stakedAmount",
          "type": "uint256"
        },
        {
          "internalType": "bool",
          "name": "lpStaked",
          "type": "bool"
        }
      ],
      "stateMutability": "view",
      "type": "function"
    },
    {
      "inputs": [
        {
          "internalType": "address",
          "name": "newOwner",
          "type": "address"
        }
      ],
      "name": "transferOwnership",
      "outputs": [],
      "stateMutability": "nonpayable",
      "type": "function"
    },
    {
      "inputs": [
        {
          "internalType": "uint256",
          "name": "_stakedAmount",
          "type": "uint256"
        }
      ],
      "name": "unstakeLPToken",
      "outputs": [],
      "stateMutability": "nonpayable",
      "type": "function"
    }
  ],
  "transactionHash": "0xdb7b962fae35b2f53c853fad172ac369819dd0b2507eb4a560999c88f9cfd08a",
  "args": [
    "0x811beed0119b4afce20d2583eb608c6f7af1954f",
    "0x98830a6cc6f8964cec4ffd65f19edebba6fef865"
  ],
  "numDeployments": 1,
  "solcInputHash": "72801d06ddf6bb4cba9d546a151d86bf",
  "bytecode": "0x6080346100c757601f6113c338819003918201601f19168301916001600160401b038311848410176100cc5780849260409485528339810103126100c757610052602061004b836100e2565b92016100e2565b60008054336001600160a01b0319808316821784556040519590946001600160a01b03949093859391908416907f8be0079c531659141344cd1fd0a4f28419497f9722a3daafe3b4186f6b6457e09080a36001805516836002541617600255169060035416176003556112cc90816100f78239f35b600080fd5b634e487b7160e01b600052604160045260246000fd5b51906001600160a01b03821682036100c75756fe6040608081526004908136101561001557600080fd5b600091823560e01c90816305664cf714610c7a5781633655bfa614610c3657816358077dfa14610a0b5781635fcbd285146109d65781636a678a9c14610967578163715018a6146108e9578163733bdef01461088857816385b6f128146108445781638acd11e0146105735781638aee8127146105015781638da5cb5b146104ce5781639168ae721461047c578163ae169a501461027a578163b72bd0f21461020d578163f2fde38b1461010a575063f7c618c1146100d357600080fd5b3461010657816003193601126101065760209073ffffffffffffffffffffffffffffffffffffffff600354169051908152f35b5080fd5b90503461020957602060031936011261020957610125610cbb565b9061012e611174565b73ffffffffffffffffffffffffffffffffffffffff8092169283156101a05750508254827fffffffffffffffffffffffff00000000000000000000000000000000000000008216178455167f8be0079c531659141344cd1fd0a4f28419497f9722a3daafe3b4186f6b6457e08380a380f35b906020608492519162461bcd60e51b8352820152602660248201527f4f776e61626c653a206e6577206f776e657220697320746865207a65726f206160448201527f64647265737300000000000000000000000000000000000000000000000000006064820152fd5b8280fd5b5050346101065760206003193601126101065761026b60209273ffffffffffffffffffffffffffffffffffffffff610243610cbb565b168152600584526102578382205442610ce3565b62015180908181101561027257505061122e565b9051908152f35b04905061122e565b9190503461020957602080600319360112610478576102976111d9565b3384528281526102a8338435610d32565b9182156104375773ffffffffffffffffffffffffffffffffffffffff600354169381517f70a0823100000000000000000000000000000000000000000000000000000000815230828201528381602481895afa90811561042d5787916103fa575b5061037595849261031d8780941015610ff7565b8885518099819582947fa9059cbb000000000000000000000000000000000000000000000000000000008452339084016020909392919373ffffffffffffffffffffffffffffffffffffffff60408201951681520152565b03925af19384156103f0577fd8138f8a3f377c5259ca548e70e4c2de94f129f5a11036a15b69513cba2b426a93946103c3575b50338552600682524281862055519283523392a26001805580f35b6103e290833d85116103e9575b6103da8183610f87565b810190611042565b50386103a8565b503d6103d0565b81513d87823e3d90fd5b90508381813d8311610426575b6104118183610f87565b810103126104225751610375610309565b8680fd5b503d610407565b83513d89823e3d90fd5b5162461bcd60e51b81529283015250601460248201527f4e6f207265776172647320617661696c61626c650000000000000000000000006044820152606490fd5b8380fd5b9050346102095760206003193601126102095791819273ffffffffffffffffffffffffffffffffffffffff6104af610cbb565b1682526020522060ff6001825492015416825191825215156020820152f35b50503461010657816003193601126101065773ffffffffffffffffffffffffffffffffffffffff60209254169051908152f35b83346105705760206003193601126105705773ffffffffffffffffffffffffffffffffffffffff610530610cbb565b610538611174565b16610544811515610ef1565b7fffffffffffffffffffffffff0000000000000000000000000000000000000000600354161760035580f35b80fd5b905034610209576020806003193601126104785781359233855282825261059e818620541515610f3c565b3385528282528085205415610803576105b56111d9565b3385528282528085206105ca81541515610f3c565b6105d43386610d32565b9373ffffffffffffffffffffffffffffffffffffffff806003541684517f70a0823100000000000000000000000000000000000000000000000000000000815230848201528681602481855afa9081156107c2579088949392918b916107cc575b5084610642911015610ff7565b8686518092818d8161069e7fa9059cbb000000000000000000000000000000000000000000000000000000009a8b8352338b84016020909392919373ffffffffffffffffffffffffffffffffffffffff60408201951681520152565b03925af180156107c257918793916106f795936107a5575b5060025416908a8654938851968795869485938452339084016020909392919373ffffffffffffffffffffffffffffffffffffffff60408201951681520152565b03925af1801561042d5795610736917fd8138f8a3f377c5259ca548e70e4c2de94f129f5a11036a15b69513cba2b426a9697610788575b508254610ce3565b808255156107595750338552600682524281862055519283523392a26001805580f35b6001017fffffffffffffffffffffffffffffffffffffffffffffffffffffffffffffff008154169055386103a8565b61079e90863d88116103e9576103da8183610f87565b503861072e565b6107bb90853d87116103e9576103da8183610f87565b50386106b6565b86513d8c823e3d90fd5b809550888092503d83116107fc575b6107e58183610f87565b810103126107f857925187939084610635565b8980fd5b503d6107db565b60649350519162461bcd60e51b8352820152601060248201527f4e6f7420616e204c50207374616b6572000000000000000000000000000000006044820152fd5b505034610106576020600319360112610106578060209273ffffffffffffffffffffffffffffffffffffffff610878610cbb565b1681526006845220549051908152f35b905034610209576020600319360112610209579160609273ffffffffffffffffffffffffffffffffffffffff6108bc610cbb565b16825260205281812054916005602052808083205492600660205220549181519384526020840152820152f35b8334610570578060031936011261057057610902611174565b8073ffffffffffffffffffffffffffffffffffffffff81547fffffffffffffffffffffffff000000000000000000000000000000000000000081168355167f8be0079c531659141344cd1fd0a4f28419497f9722a3daafe3b4186f6b6457e08280a380f35b83346105705760206003193601126105705773ffffffffffffffffffffffffffffffffffffffff610996610cbb565b61099e611174565b166109aa811515610ef1565b7fffffffffffffffffffffffff0000000000000000000000000000000000000000600254161760025580f35b50503461010657816003193601126101065760209073ffffffffffffffffffffffffffffffffffffffff600254169051908152f35b905034610209576020806003193601126104785781359182151590610a2f82610e80565b73ffffffffffffffffffffffffffffffffffffffff60248482600254168851928380927f70a0823100000000000000000000000000000000000000000000000000000000825233888301525afa908115610c2c578891610bfb575b5015610bb957869160648592610a9e6111d9565b338552828452610ab089862096610e80565b6002541691885194859384927f23b872dd00000000000000000000000000000000000000000000000000000000845233908401523060248401528960448401525af18015610baf57916001917f0eef359a62dee7c1b6ac3e65bd832c9f9189bbdac34c67f5acfecf6efa65adfb959693610b92575b50610b3186825461105a565b81553387526005845242838820550160ff81541615610b5a575b50519283523392a26001805580f35b60068352858281205560017fffffffffffffffffffffffffffffffffffffffffffffffffffffffffffffff0082541617905538610b4b565b610ba890853d87116103e9576103da8183610f87565b5038610b25565b85513d88823e3d90fd5b6064828588519162461bcd60e51b8352820152600f60248201527f4e6f7420616e204c50206f776e657200000000000000000000000000000000006044820152fd5b90508481813d8311610c25575b610c128183610f87565b81010312610c21575138610a8a565b8780fd5b503d610c08565b87513d8a823e3d90fd5b505034610106576020600319360112610106578060209273ffffffffffffffffffffffffffffffffffffffff610c6a610cbb565b1681526005845220549051908152f35b9050346102095781600319360112610209576024359273ffffffffffffffffffffffffffffffffffffffff84168403610570575060209261026b9135610d32565b6004359073ffffffffffffffffffffffffffffffffffffffff82168203610cde57565b600080fd5b91908203918211610cf057565b7f4e487b7100000000000000000000000000000000000000000000000000000000600052601160045260246000fd5b81810292918115918404141715610cf057565b9073ffffffffffffffffffffffffffffffffffffffff1660008181526005602052610d61604082205442610ce3565b916201518080841015610e775782935b81850290858204831486151715610e4a5790610d8c91610ce3565b918084526006602052604084205415610e3c5783526006602052610dbe60408420546005602052604085205490610ce3565b81811015610e3357835b828502928584041485151715610e065750610e03959492610df0610dfd9593610df793610ce3565b9386611067565b93611067565b90610ce3565b90565b807f4e487b7100000000000000000000000000000000000000000000000000000000602492526011600452fd5b81810493610dc8565b5050919050610e0392611067565b6024857f4e487b710000000000000000000000000000000000000000000000000000000081526011600452fd5b80840493610d71565b15610e8757565b608460405162461bcd60e51b815260206004820152602e60248201527f43616e6e6f74207374616b65203020746f6b656e732c20666f7220697420697360448201527f207472756c79206e6f7468696e670000000000000000000000000000000000006064820152fd5b15610ef857565b606460405162461bcd60e51b815260206004820152601660248201527f416464726573732063616e6e6f74206265207a65726f000000000000000000006044820152fd5b15610f4357565b606460405162461bcd60e51b815260206004820152601360248201527f4e6f207374616b6564204c5020746f6b656e73000000000000000000000000006044820152fd5b90601f7fffffffffffffffffffffffffffffffffffffffffffffffffffffffffffffffe0910116810190811067ffffffffffffffff821117610fc857604052565b7f4e487b7100000000000000000000000000000000000000000000000000000000600052604160045260246000fd5b15610ffe57565b606460405162461bcd60e51b815260206004820152601b60248201527f496e73756666696369656e74207265776172642062616c616e636500000000006044820152fd5b90816020910312610cde57518015158103610cde5790565b91908201809211610cf057565b91606482111561114e57611d33808402908482041484151715610cf057620b67ec840281810460641482151715610cf057620f42407fffffffffffffffffffffffffffffffffffffffffffffffffffffffffffffff9c8501858111610cf0576110d482916110dc95610d1f565b04910461105a565b915b816110eb575b5050905090565b60648110611129575061111b9064141dd760006111156111219561110f606461122e565b90610d1f565b04610d1f565b9061105a565b8038806110e4565b9060018201809211610cf05764141dd760006111156111219561110f61111b9561122e565b620f424061116d836111686111628261122e565b87610d1f565b610d1f565b04916110de565b73ffffffffffffffffffffffffffffffffffffffff60005416330361119557565b606460405162461bcd60e51b815260206004820152602060248201527f4f776e61626c653a2063616c6c6572206973206e6f7420746865206f776e65726044820152fd5b6002600154146111ea576002600155565b606460405162461bcd60e51b815260206004820152601f60248201527f5265656e7472616e637947756172643a207265656e7472616e742063616c6c006044820152fd5b6064811161128e575b8015611288577fffffffffffffffffffffffffffffffffffffffffffffffffffffffffffffffff8101908111610cf057604b810290808204604b1490151715610cf05760320180603211610cf05790565b50603290565b50606461123756fea2646970667358221220be3f9ba1f011dff1847c2032c4e934a651316c64b4aac4cc27342982cb26de8064736f6c63430008180033",
  "devdoc": {
    "kind": "dev",
    "methods": {
      "owner()": {
        "details": "Returns the address of the current owner."
      },
      "renounceOwnership()": {
        "details": "Leaves the contract without owner. It will not be possible to call `onlyOwner` functions. Can only be called by the current owner. NOTE: Renouncing ownership will leave the contract without an owner, thereby disabling any functionality that is only available to the owner."
      },
      "transferOwnership(address)": {
        "details": "Transfers ownership of the contract to a new account (`newOwner`). Can only be called by the current owner."
      }
    },
    "version": 1
  },
  "userdoc": {
    "kind": "user",
    "methods": {},
    "version": 1
  },
  "storageLayout": {
    "storage": [
      {
        "astId": 7,
        "contract": "contracts/LPStaking.sol:LPStaking",
        "label": "_owner",
        "offset": 0,
        "slot": "0",
        "type": "t_address"
      },
      {
        "astId": 123,
        "contract": "contracts/LPStaking.sol:LPStaking",
        "label": "_status",
        "offset": 0,
        "slot": "1",
        "type": "t_uint256"
      },
      {
        "astId": 1813,
        "contract": "contracts/LPStaking.sol:LPStaking",
        "label": "lpToken",
        "offset": 0,
        "slot": "2",
        "type": "t_contract(IERC20)255"
      },
      {
        "astId": 1816,
        "contract": "contracts/LPStaking.sol:LPStaking",
        "label": "rewardToken",
        "offset": 0,
        "slot": "3",
        "type": "t_contract(IERC20)255"
      },
      {
        "astId": 1826,
        "contract": "contracts/LPStaking.sol:LPStaking",
        "label": "stakers",
        "offset": 0,
        "slot": "4",
        "type": "t_mapping(t_address,t_struct(StakerInfo)1821_storage)"
      },
      {
        "astId": 1834,
        "contract": "contracts/LPStaking.sol:LPStaking",
        "label": "lpStakeTimes",
        "offset": 0,
        "slot": "5",
        "type": "t_mapping(t_address,t_uint256)"
      },
      {
        "astId": 1838,
        "contract": "contracts/LPStaking.sol:LPStaking",
        "label": "lpClaimTimes",
        "offset": 0,
        "slot": "6",
        "type": "t_mapping(t_address,t_uint256)"
      }
    ],
    "types": {
      "t_address": {
        "encoding": "inplace",
        "label": "address",
        "numberOfBytes": "20"
      },
      "t_bool": {
        "encoding": "inplace",
        "label": "bool",
        "numberOfBytes": "1"
      },
      "t_contract(IERC20)255": {
        "encoding": "inplace",
        "label": "contract IERC20",
        "numberOfBytes": "20"
      },
      "t_mapping(t_address,t_struct(StakerInfo)1821_storage)": {
        "encoding": "mapping",
        "key": "t_address",
        "label": "mapping(address => struct LPStaking.StakerInfo)",
        "numberOfBytes": "32",
        "value": "t_struct(StakerInfo)1821_storage"
      },
      "t_mapping(t_address,t_uint256)": {
        "encoding": "mapping",
        "key": "t_address",
        "label": "mapping(address => uint256)",
        "numberOfBytes": "32",
        "value": "t_uint256"
      },
      "t_struct(StakerInfo)1821_storage": {
        "encoding": "inplace",
        "label": "struct LPStaking.StakerInfo",
        "members": [
          {
            "astId": 1818,
            "contract": "contracts/LPStaking.sol:LPStaking",
            "label": "stakedAmount",
            "offset": 0,
            "slot": "0",
            "type": "t_uint256"
          },
          {
            "astId": 1820,
            "contract": "contracts/LPStaking.sol:LPStaking",
            "label": "lpStaked",
            "offset": 0,
            "slot": "1",
            "type": "t_bool"
          }
        ],
        "numberOfBytes": "64"
      },
      "t_uint256": {
        "encoding": "inplace",
        "label": "uint256",
        "numberOfBytes": "32"
      }
    }
  }
}